{
  "contractName": "FXAuction",
  "abi": [
    {
      "inputs": [],
      "stateMutability": "nonpayable",
      "type": "constructor"
    },
    {
      "anonymous": false,
      "inputs": [
        {
          "indexed": true,
          "internalType": "uint256",
          "name": "auctionId",
          "type": "uint256"
        },
        {
          "indexed": false,
          "internalType": "uint256",
          "name": "rbzUSDBalance",
          "type": "uint256"
        },
        {
          "indexed": false,
          "internalType": "uint256",
          "name": "rbzZWLBalance",
          "type": "uint256"
        },
        {
          "indexed": false,
          "internalType": "string",
          "name": "auctionTitle",
          "type": "string"
        },
        {
          "indexed": false,
          "internalType": "string",
          "name": "auctionType",
          "type": "string"
        },
        {
          "indexed": false,
          "internalType": "uint256",
          "name": "startTime",
          "type": "uint256"
        },
        {
          "indexed": false,
          "internalType": "uint256",
          "name": "endTime",
          "type": "uint256"
        },
        {
          "indexed": false,
          "internalType": "uint256",
          "name": "lowestBidPrice",
          "type": "uint256"
        },
        {
          "indexed": false,
          "internalType": "uint256",
          "name": "highestBidPrice",
          "type": "uint256"
        }
      ],
      "name": "AuctionCreated",
      "type": "event"
    },
    {
      "anonymous": false,
      "inputs": [
        {
          "components": [
            {
              "internalType": "uint256",
              "name": "fxBidFormListingId",
              "type": "uint256"
            },
            {
              "internalType": "uint256",
              "name": "auctionId",
              "type": "uint256"
            },
            {
              "internalType": "string",
              "name": "applicantName",
              "type": "string"
            },
            {
              "internalType": "string",
              "name": "dateOfIncorporation",
              "type": "string"
            },
            {
              "internalType": "string",
              "name": "tradingCommencementDate",
              "type": "string"
            },
            {
              "internalType": "string",
              "name": "identificationNumber",
              "type": "string"
            },
            {
              "internalType": "string",
              "name": "categoryOfBidder",
              "type": "string"
            },
            {
              "internalType": "string",
              "name": "physicalAddress",
              "type": "string"
            },
            {
              "internalType": "string",
              "name": "emailAddress",
              "type": "string"
            },
            {
              "internalType": "string",
              "name": "contactNumber",
              "type": "string"
            },
            {
              "internalType": "string",
              "name": "applicantBank",
              "type": "string"
            },
            {
              "internalType": "string",
              "name": "auctionRef",
              "type": "string"
            },
            {
              "internalType": "string",
              "name": "priorExhangeControlNumber",
              "type": "string"
            },
            {
              "internalType": "uint256",
              "name": "date",
              "type": "uint256"
            },
            {
              "internalType": "string",
              "name": "economicSector",
              "type": "string"
            },
            {
              "internalType": "string",
              "name": "purposeOfFunds",
              "type": "string"
            },
            {
              "internalType": "string",
              "name": "descriptionOfGoods",
              "type": "string"
            },
            {
              "internalType": "string",
              "name": "ultimateBeneficiary",
              "type": "string"
            },
            {
              "internalType": "uint256",
              "name": "bidAmountUSD",
              "type": "uint256"
            },
            {
              "internalType": "uint256",
              "name": "bidExchangeRate",
              "type": "uint256"
            },
            {
              "internalType": "uint256",
              "name": "zwlEquivalent",
              "type": "uint256"
            },
            {
              "internalType": "uint256",
              "name": "currentBalanceZWL",
              "type": "uint256"
            },
            {
              "internalType": "uint256",
              "name": "currentNostroBalanceUSD",
              "type": "uint256"
            },
            {
              "internalType": "uint256",
              "name": "allocatedAmountBlance",
              "type": "uint256"
            },
            {
              "internalType": "bool",
              "name": "allocationStatus",
              "type": "bool"
            }
          ],
          "indexed": false,
          "internalType": "struct FXAuction.FxBidForm",
          "name": "bid",
          "type": "tuple"
        }
      ],
      "name": "BidAllocatedFunds",
      "type": "event"
    },
    {
      "anonymous": false,
      "inputs": [
        {
          "components": [
            {
              "internalType": "uint256",
              "name": "fxBidFormListingId",
              "type": "uint256"
            },
            {
              "internalType": "uint256",
              "name": "auctionId",
              "type": "uint256"
            },
            {
              "internalType": "string",
              "name": "applicantName",
              "type": "string"
            },
            {
              "internalType": "string",
              "name": "dateOfIncorporation",
              "type": "string"
            },
            {
              "internalType": "string",
              "name": "tradingCommencementDate",
              "type": "string"
            },
            {
              "internalType": "string",
              "name": "identificationNumber",
              "type": "string"
            },
            {
              "internalType": "string",
              "name": "categoryOfBidder",
              "type": "string"
            },
            {
              "internalType": "string",
              "name": "physicalAddress",
              "type": "string"
            },
            {
              "internalType": "string",
              "name": "emailAddress",
              "type": "string"
            },
            {
              "internalType": "string",
              "name": "contactNumber",
              "type": "string"
            },
            {
              "internalType": "string",
              "name": "applicantBank",
              "type": "string"
            },
            {
              "internalType": "string",
              "name": "auctionRef",
              "type": "string"
            },
            {
              "internalType": "string",
              "name": "priorExhangeControlNumber",
              "type": "string"
            },
            {
              "internalType": "uint256",
              "name": "date",
              "type": "uint256"
            },
            {
              "internalType": "string",
              "name": "economicSector",
              "type": "string"
            },
            {
              "internalType": "string",
              "name": "purposeOfFunds",
              "type": "string"
            },
            {
              "internalType": "string",
              "name": "descriptionOfGoods",
              "type": "string"
            },
            {
              "internalType": "string",
              "name": "ultimateBeneficiary",
              "type": "string"
            },
            {
              "internalType": "uint256",
              "name": "bidAmountUSD",
              "type": "uint256"
            },
            {
              "internalType": "uint256",
              "name": "bidExchangeRate",
              "type": "uint256"
            },
            {
              "internalType": "uint256",
              "name": "zwlEquivalent",
              "type": "uint256"
            },
            {
              "internalType": "uint256",
              "name": "currentBalanceZWL",
              "type": "uint256"
            },
            {
              "internalType": "uint256",
              "name": "currentNostroBalanceUSD",
              "type": "uint256"
            },
            {
              "internalType": "uint256",
              "name": "allocatedAmountBlance",
              "type": "uint256"
            },
            {
              "internalType": "bool",
              "name": "allocationStatus",
              "type": "bool"
            }
          ],
          "indexed": false,
          "internalType": "struct FXAuction.FxBidForm",
          "name": "bid",
          "type": "tuple"
        }
      ],
      "name": "BidSubmitted",
      "type": "event"
    },
    {
      "anonymous": false,
      "inputs": [
        {
          "indexed": false,
          "internalType": "string",
          "name": "message",
          "type": "string"
        }
      ],
      "name": "TestEvent",
      "type": "event"
    },
    {
      "inputs": [
        {
          "components": [
            {
              "internalType": "uint256",
              "name": "rbzUSDBalance",
              "type": "uint256"
            },
            {
              "internalType": "string",
              "name": "auctionTitle",
              "type": "string"
            },
            {
              "internalType": "string",
              "name": "auctionType",
              "type": "string"
            },
            {
              "internalType": "uint256",
              "name": "startTime",
              "type": "uint256"
            },
            {
              "internalType": "uint256",
              "name": "endTime",
              "type": "uint256"
            },
            {
              "internalType": "uint256",
              "name": "lowestBidPrice",
              "type": "uint256"
            },
            {
              "internalType": "uint256",
              "name": "highestBidPrice",
              "type": "uint256"
            }
          ],
          "internalType": "struct FXAuction.SubmitAuction",
          "name": "newAuction",
          "type": "tuple"
        }
      ],
      "name": "submitAuction",
      "outputs": [],
      "stateMutability": "nonpayable",
      "type": "function"
    },
    {
      "inputs": [
        {
          "components": [
            {
              "internalType": "uint256",
              "name": "fxBidFormListingId",
              "type": "uint256"
            },
            {
              "internalType": "uint256",
              "name": "auctionId",
              "type": "uint256"
            },
            {
              "internalType": "string",
              "name": "applicantName",
              "type": "string"
            },
            {
              "internalType": "string",
              "name": "dateOfIncorporation",
              "type": "string"
            },
            {
              "internalType": "string",
              "name": "tradingCommencementDate",
              "type": "string"
            },
            {
              "internalType": "string",
              "name": "identificationNumber",
              "type": "string"
            },
            {
              "internalType": "string",
              "name": "categoryOfBidder",
              "type": "string"
            },
            {
              "internalType": "string",
              "name": "physicalAddress",
              "type": "string"
            },
            {
              "internalType": "string",
              "name": "emailAddress",
              "type": "string"
            },
            {
              "internalType": "string",
              "name": "contactNumber",
              "type": "string"
            },
            {
              "internalType": "string",
              "name": "applicantBank",
              "type": "string"
            },
            {
              "internalType": "string",
              "name": "auctionRef",
              "type": "string"
            },
            {
              "internalType": "string",
              "name": "priorExhangeControlNumber",
              "type": "string"
            },
            {
              "internalType": "uint256",
              "name": "date",
              "type": "uint256"
            },
            {
              "internalType": "string",
              "name": "economicSector",
              "type": "string"
            },
            {
              "internalType": "string",
              "name": "purposeOfFunds",
              "type": "string"
            },
            {
              "internalType": "string",
              "name": "descriptionOfGoods",
              "type": "string"
            },
            {
              "internalType": "string",
              "name": "ultimateBeneficiary",
              "type": "string"
            },
            {
              "internalType": "uint256",
              "name": "bidAmountUSD",
              "type": "uint256"
            },
            {
              "internalType": "uint256",
              "name": "bidExchangeRate",
              "type": "uint256"
            },
            {
              "internalType": "uint256",
              "name": "zwlEquivalent",
              "type": "uint256"
            },
            {
              "internalType": "uint256",
              "name": "currentBalanceZWL",
              "type": "uint256"
            },
            {
              "internalType": "uint256",
              "name": "currentNostroBalanceUSD",
              "type": "uint256"
            },
            {
              "internalType": "uint256",
              "name": "allocatedAmountBlance",
              "type": "uint256"
            },
            {
              "internalType": "bool",
              "name": "allocationStatus",
              "type": "bool"
            }
          ],
          "internalType": "struct FXAuction.FxBidForm",
          "name": "fxBidForm",
          "type": "tuple"
        }
      ],
      "name": "submitBid",
      "outputs": [],
      "stateMutability": "nonpayable",
      "type": "function"
    },
    {
      "inputs": [],
      "name": "getAllAuctionsCount",
      "outputs": [
        {
          "internalType": "uint256",
          "name": "",
          "type": "uint256"
        }
      ],
      "stateMutability": "view",
      "type": "function",
      "constant": true
    },
    {
      "inputs": [
        {
          "internalType": "uint256",
          "name": "auctionId",
          "type": "uint256"
        }
      ],
      "name": "getAllPrimaryBids",
      "outputs": [
        {
          "components": [
            {
              "internalType": "uint256",
              "name": "fxBidFormListingId",
              "type": "uint256"
            },
            {
              "internalType": "uint256",
              "name": "auctionId",
              "type": "uint256"
            },
            {
              "internalType": "string",
              "name": "applicantName",
              "type": "string"
            },
            {
              "internalType": "string",
              "name": "dateOfIncorporation",
              "type": "string"
            },
            {
              "internalType": "string",
              "name": "tradingCommencementDate",
              "type": "string"
            },
            {
              "internalType": "string",
              "name": "identificationNumber",
              "type": "string"
            },
            {
              "internalType": "string",
              "name": "categoryOfBidder",
              "type": "string"
            },
            {
              "internalType": "string",
              "name": "physicalAddress",
              "type": "string"
            },
            {
              "internalType": "string",
              "name": "emailAddress",
              "type": "string"
            },
            {
              "internalType": "string",
              "name": "contactNumber",
              "type": "string"
            },
            {
              "internalType": "string",
              "name": "applicantBank",
              "type": "string"
            },
            {
              "internalType": "string",
              "name": "auctionRef",
              "type": "string"
            },
            {
              "internalType": "string",
              "name": "priorExhangeControlNumber",
              "type": "string"
            },
            {
              "internalType": "uint256",
              "name": "date",
              "type": "uint256"
            },
            {
              "internalType": "string",
              "name": "economicSector",
              "type": "string"
            },
            {
              "internalType": "string",
              "name": "purposeOfFunds",
              "type": "string"
            },
            {
              "internalType": "string",
              "name": "descriptionOfGoods",
              "type": "string"
            },
            {
              "internalType": "string",
              "name": "ultimateBeneficiary",
              "type": "string"
            },
            {
              "internalType": "uint256",
              "name": "bidAmountUSD",
              "type": "uint256"
            },
            {
              "internalType": "uint256",
              "name": "bidExchangeRate",
              "type": "uint256"
            },
            {
              "internalType": "uint256",
              "name": "zwlEquivalent",
              "type": "uint256"
            },
            {
              "internalType": "uint256",
              "name": "currentBalanceZWL",
              "type": "uint256"
            },
            {
              "internalType": "uint256",
              "name": "currentNostroBalanceUSD",
              "type": "uint256"
            },
            {
              "internalType": "uint256",
              "name": "allocatedAmountBlance",
              "type": "uint256"
            },
            {
              "internalType": "bool",
              "name": "allocationStatus",
              "type": "bool"
            }
          ],
          "internalType": "struct FXAuction.FxBidForm[]",
          "name": "",
          "type": "tuple[]"
        }
      ],
      "stateMutability": "view",
      "type": "function",
      "constant": true
    },
    {
      "inputs": [],
      "name": "getAllAuctions",
      "outputs": [
        {
          "components": [
            {
              "internalType": "uint256",
              "name": "auctionId",
              "type": "uint256"
            },
            {
              "internalType": "uint256",
              "name": "_bidsAllocatedFunds",
              "type": "uint256"
            },
            {
              "internalType": "uint256",
              "name": "rbzUSDBalance",
              "type": "uint256"
            },
            {
              "internalType": "uint256",
              "name": "rbzZWLBalance",
              "type": "uint256"
            },
            {
              "internalType": "uint256",
              "name": "_bidListingId",
              "type": "uint256"
            },
            {
              "internalType": "string",
              "name": "auctionTitle",
              "type": "string"
            },
            {
              "internalType": "string",
              "name": "auctionType",
              "type": "string"
            },
            {
              "internalType": "uint256",
              "name": "startTime",
              "type": "uint256"
            },
            {
              "internalType": "uint256",
              "name": "endTime",
              "type": "uint256"
            },
            {
              "internalType": "uint256",
              "name": "lowestBidPrice",
              "type": "uint256"
            },
            {
              "internalType": "uint256",
              "name": "highestBidPrice",
              "type": "uint256"
            }
          ],
          "internalType": "struct FXAuction.GetAuction[]",
          "name": "",
          "type": "tuple[]"
        }
      ],
      "stateMutability": "view",
      "type": "function",
      "constant": true
    },
    {
      "inputs": [
        {
          "components": [
            {
              "internalType": "uint256",
              "name": "fxBidFormListingId",
              "type": "uint256"
            },
            {
              "internalType": "uint256",
              "name": "auctionId",
              "type": "uint256"
            },
            {
              "internalType": "string",
              "name": "applicantName",
              "type": "string"
            },
            {
              "internalType": "string",
              "name": "dateOfIncorporation",
              "type": "string"
            },
            {
              "internalType": "string",
              "name": "tradingCommencementDate",
              "type": "string"
            },
            {
              "internalType": "string",
              "name": "identificationNumber",
              "type": "string"
            },
            {
              "internalType": "string",
              "name": "categoryOfBidder",
              "type": "string"
            },
            {
              "internalType": "string",
              "name": "physicalAddress",
              "type": "string"
            },
            {
              "internalType": "string",
              "name": "emailAddress",
              "type": "string"
            },
            {
              "internalType": "string",
              "name": "contactNumber",
              "type": "string"
            },
            {
              "internalType": "string",
              "name": "applicantBank",
              "type": "string"
            },
            {
              "internalType": "string",
              "name": "auctionRef",
              "type": "string"
            },
            {
              "internalType": "string",
              "name": "priorExhangeControlNumber",
              "type": "string"
            },
            {
              "internalType": "uint256",
              "name": "date",
              "type": "uint256"
            },
            {
              "internalType": "string",
              "name": "economicSector",
              "type": "string"
            },
            {
              "internalType": "string",
              "name": "purposeOfFunds",
              "type": "string"
            },
            {
              "internalType": "string",
              "name": "descriptionOfGoods",
              "type": "string"
            },
            {
              "internalType": "string",
              "name": "ultimateBeneficiary",
              "type": "string"
            },
            {
              "internalType": "uint256",
              "name": "bidAmountUSD",
              "type": "uint256"
            },
            {
              "internalType": "uint256",
              "name": "bidExchangeRate",
              "type": "uint256"
            },
            {
              "internalType": "uint256",
              "name": "zwlEquivalent",
              "type": "uint256"
            },
            {
              "internalType": "uint256",
              "name": "currentBalanceZWL",
              "type": "uint256"
            },
            {
              "internalType": "uint256",
              "name": "currentNostroBalanceUSD",
              "type": "uint256"
            },
            {
              "internalType": "uint256",
              "name": "allocatedAmountBlance",
              "type": "uint256"
            },
            {
              "internalType": "bool",
              "name": "allocationStatus",
              "type": "bool"
            }
          ],
          "internalType": "struct FXAuction.FxBidForm[]",
          "name": "bids",
          "type": "tuple[]"
        }
      ],
      "name": "allocateFunds",
      "outputs": [],
      "stateMutability": "nonpayable",
      "type": "function"
    },
    {
      "inputs": [
        {
          "internalType": "uint256",
          "name": "fxBidFormListingId",
          "type": "uint256"
        },
        {
          "internalType": "uint256",
          "name": "auctionId",
          "type": "uint256"
        }
      ],
      "name": "findPrimaryBidById",
      "outputs": [
        {
          "components": [
            {
              "internalType": "uint256",
              "name": "fxBidFormListingId",
              "type": "uint256"
            },
            {
              "internalType": "uint256",
              "name": "auctionId",
              "type": "uint256"
            },
            {
              "internalType": "string",
              "name": "applicantName",
              "type": "string"
            },
            {
              "internalType": "string",
              "name": "dateOfIncorporation",
              "type": "string"
            },
            {
              "internalType": "string",
              "name": "tradingCommencementDate",
              "type": "string"
            },
            {
              "internalType": "string",
              "name": "identificationNumber",
              "type": "string"
            },
            {
              "internalType": "string",
              "name": "categoryOfBidder",
              "type": "string"
            },
            {
              "internalType": "string",
              "name": "physicalAddress",
              "type": "string"
            },
            {
              "internalType": "string",
              "name": "emailAddress",
              "type": "string"
            },
            {
              "internalType": "string",
              "name": "contactNumber",
              "type": "string"
            },
            {
              "internalType": "string",
              "name": "applicantBank",
              "type": "string"
            },
            {
              "internalType": "string",
              "name": "auctionRef",
              "type": "string"
            },
            {
              "internalType": "string",
              "name": "priorExhangeControlNumber",
              "type": "string"
            },
            {
              "internalType": "uint256",
              "name": "date",
              "type": "uint256"
            },
            {
              "internalType": "string",
              "name": "economicSector",
              "type": "string"
            },
            {
              "internalType": "string",
              "name": "purposeOfFunds",
              "type": "string"
            },
            {
              "internalType": "string",
              "name": "descriptionOfGoods",
              "type": "string"
            },
            {
              "internalType": "string",
              "name": "ultimateBeneficiary",
              "type": "string"
            },
            {
              "internalType": "uint256",
              "name": "bidAmountUSD",
              "type": "uint256"
            },
            {
              "internalType": "uint256",
              "name": "bidExchangeRate",
              "type": "uint256"
            },
            {
              "internalType": "uint256",
              "name": "zwlEquivalent",
              "type": "uint256"
            },
            {
              "internalType": "uint256",
              "name": "currentBalanceZWL",
              "type": "uint256"
            },
            {
              "internalType": "uint256",
              "name": "currentNostroBalanceUSD",
              "type": "uint256"
            },
            {
              "internalType": "uint256",
              "name": "allocatedAmountBlance",
              "type": "uint256"
            },
            {
              "internalType": "bool",
              "name": "allocationStatus",
              "type": "bool"
            }
          ],
          "internalType": "struct FXAuction.FxBidForm",
          "name": "",
          "type": "tuple"
        }
      ],
      "stateMutability": "view",
      "type": "function",
      "constant": true
    }
  ],
  "bytecode": "0x608060405234801561001057600080fd5b50612f87806100206000396000f3fe608060405234801561001057600080fd5b506004361061007d5760003560e01c8063460154c01161005b578063460154c0146100bd578063cbd2bdfd146100d3578063d9aadbcc146100e8578063daf62c2a1461010857600080fd5b80630a24bf82146100825780632fada74b146100975780633c495e4e146100aa575b600080fd5b6100956100903660046125bb565b610128565b005b6100956100a536600461267e565b6103eb565b6100956100b83660046126bb565b610944565b6000546040519081526020015b60405180910390f35b6100db610a87565b6040516100ca91906127ce565b6100fb6100f63660046128b7565b610d54565b6040516100ca9190612ae8565b61011b610116366004612b02565b61168e565b6040516100ca9190612b1b565b7fe75028ff36bb6473da3731a30e1aeeae9988e2415dba2c4e91e0357955065fba6040516101719060208082526007908201526674657374696e6760c81b604082015260600190565b60405180910390a160008160008151811061018e5761018e612b7d565b602002602001015160200151905060005b82518161ffff1610156103e657600060018261ffff1685516101c19190612ba9565b6101cb9190612ba9565b90508381815181106101df576101df612b7d565b602002602001015161024001516001600085815260200190815260200160002060020154101561020f5750505050565b600060016000858152602001908152602001600020600b01600086848151811061023b5761023b612b7d565b6020026020010151600001518152602001908152602001600020905084828151811061026957610269612b7d565b60200260200101516102400151816017018190555084828151811061029057610290612b7d565b6020026020010151610240015160016000868152602001908152602001600020600201546102be9190612ba9565b60008581526001602052604090206002015584518590839081106102e4576102e4612b7d565b6020026020010151610280015160016000868152602001908152602001600020600301546103129190612bc0565b60008581526001602081905260408220600381019390935587519092600b01919088908690811061034557610345612b7d565b602002602001015160000151815260200190815260200160002060180160006101000a81548160ff0219169083151502179055507f01eecf25e21f423185c63e3c9517a8789fc7bc85862c900028004bcff0a2bed4816040516103a89190612cb4565b60405180910390a160008481526001602081905260408220018054916103cd83612eb8565b91905055505050806103de81612ed3565b91505061019f565b505050565b6000816102400151116104455760405162461bcd60e51b815260206004820152601c60248201527f5072696365206d7573742062652067726561746572207468616e20300000000060448201526064015b60405180910390fd5b60208082015160009081526001909152604090206009015461026082015110156104b15760405162461bcd60e51b815260206004820152601a60248201527f50726963652062656c6f77207374617274696e67207072696365000000000000604482015260640161043c565b6020808201516000908152600190915260409020600a0154610260820151111561051d5760405162461bcd60e51b815260206004820152601960248201527f50726963652061626f7665206869676865737420707269636500000000000000604482015260640161043c565b806102a0015181610280015111156105825760405162461bcd60e51b815260206004820152602260248201527f496e73756666696369656e742066756e647320696e2062616e6b206163636f756044820152611b9d60f21b606482015260840161043c565b806102c0015181610240015110156105f15760405162461bcd60e51b815260206004820152602c60248201527f426964646572206861732073756666696369656e742055534420696e206e6f7360448201526b74726f206163636f756e747360a01b606482015260840161043c565b60028161024001511015801561060f57506207a12081610240015111155b80156106345750806102400151614e20108015610632575061c350816102400151105b155b6106785760405162461bcd60e51b8152602060048201526015602482015274109a5908185b5bdd5b9d081a5cc81a5b9d985b1a59605a1b604482015260640161043c565b6020808201805160009081526001808452604080832060049081015487526102e0870184905261030087018490528451845282865281842085518552828520909101548452600b0185529182902085518155925190830155830151805184936106e8926002850192910190612071565b5060608201518051610704916003840191602090910190612071565b5060808201518051610720916004840191602090910190612071565b5060a0820151805161073c916005840191602090910190612071565b5060c08201518051610758916006840191602090910190612071565b5060e08201518051610774916007840191602090910190612071565b506101008201518051610791916008840191602090910190612071565b5061012082015180516107ae916009840191602090910190612071565b5061014082015180516107cb91600a840191602090910190612071565b5061016082015180516107e891600b840191602090910190612071565b50610180820151805161080591600c840191602090910190612071565b506101a0820151600d8201556101c0820151805161082d91600e840191602090910190612071565b506101e0820151805161084a91600f840191602090910190612071565b506102008201518051610867916010840191602090910190612071565b506102208201518051610884916011840191602090910190612071565b506102408201516012820155610260820151601382015561028082015160148201556102a082015160158201556102c082015160168201556102e08201516017820155610300909101516018909101805460ff1916911515919091179055602081810151600090815260019091526040812060040180549161090583612eb8565b91905055507ffaca14019410cc6b5f7493976f3fa90b9a79cff9c4beda733d50dbb44d7407d8816040516109399190612ae8565b60405180910390a150565b60008054808252600160205260408220918061095f83612eb8565b9091555081558151600282015560208083015180516109849260058501920190612071565b50604082015180516109a0916006840191602090910190612071565b50606082015160078201556080820151600882015560a0820151600982015560c0820151600a8201556040517fe75028ff36bb6473da3731a30e1aeeae9988e2415dba2c4e91e0357955065fba90610a139060208082526007908201526674657374696e6760c81b604082015260600190565b60405180910390a180600001547fa43bf15150b6412f25f6498a3a0ea21ef6058636917297f75e19155fa678c7ca82600201548360030154846005018560060186600701548760080154886009015489600a0154604051610a7b989796959493929190612ef5565b60405180910390a25050565b6060600080805467ffffffffffffffff811115610aa657610aa66121c8565b604051908082528060200260200182016040528015610b3457816020015b610b2160405180610160016040528060008152602001600081526020016000815260200160008152602001600081526020016060815260200160608152602001600081526020016000815260200160008152602001600081525090565b815260200190600190039081610ac45790505b50905060005b600054811015610d4d5760408051610160810182526000858152600160208181528483208054855280830154828601526002810154958501959095526003850154606085015260048501546080850152878352526005909201805460a083019190610ba490612bd8565b80601f0160208091040260200160405190810160405280929190818152602001828054610bd090612bd8565b8015610c1d5780601f10610bf257610100808354040283529160200191610c1d565b820191906000526020600020905b815481529060010190602001808311610c0057829003601f168201915b50505050508152602001600160008781526020019081526020016000206006018054610c4890612bd8565b80601f0160208091040260200160405190810160405280929190818152602001828054610c7490612bd8565b8015610cc15780601f10610c9657610100808354040283529160200191610cc1565b820191906000526020600020905b815481529060010190602001808311610ca457829003601f168201915b50505091835250506000868152600160208181526040808420600781015483870152600881015491860191909152600981015460608601529289905252600a015460809091015283519091508190849086908110610d2157610d21612b7d565b6020908102919091010152610d37600185612bc0565b9350508080610d4590612eb8565b915050610b3a565b5092915050565b610d5c6120f5565b60016000838152602001908152602001600020600b016000848152602001908152602001600020604051806103200160405290816000820154815260200160018201548152602001600282018054610db390612bd8565b80601f0160208091040260200160405190810160405280929190818152602001828054610ddf90612bd8565b8015610e2c5780601f10610e0157610100808354040283529160200191610e2c565b820191906000526020600020905b815481529060010190602001808311610e0f57829003601f168201915b50505050508152602001600382018054610e4590612bd8565b80601f0160208091040260200160405190810160405280929190818152602001828054610e7190612bd8565b8015610ebe5780601f10610e9357610100808354040283529160200191610ebe565b820191906000526020600020905b815481529060010190602001808311610ea157829003601f168201915b50505050508152602001600482018054610ed790612bd8565b80601f0160208091040260200160405190810160405280929190818152602001828054610f0390612bd8565b8015610f505780601f10610f2557610100808354040283529160200191610f50565b820191906000526020600020905b815481529060010190602001808311610f3357829003601f168201915b50505050508152602001600582018054610f6990612bd8565b80601f0160208091040260200160405190810160405280929190818152602001828054610f9590612bd8565b8015610fe25780601f10610fb757610100808354040283529160200191610fe2565b820191906000526020600020905b815481529060010190602001808311610fc557829003601f168201915b50505050508152602001600682018054610ffb90612bd8565b80601f016020809104026020016040519081016040528092919081815260200182805461102790612bd8565b80156110745780601f1061104957610100808354040283529160200191611074565b820191906000526020600020905b81548152906001019060200180831161105757829003601f168201915b5050505050815260200160078201805461108d90612bd8565b80601f01602080910402602001604051908101604052809291908181526020018280546110b990612bd8565b80156111065780601f106110db57610100808354040283529160200191611106565b820191906000526020600020905b8154815290600101906020018083116110e957829003601f168201915b5050505050815260200160088201805461111f90612bd8565b80601f016020809104026020016040519081016040528092919081815260200182805461114b90612bd8565b80156111985780601f1061116d57610100808354040283529160200191611198565b820191906000526020600020905b81548152906001019060200180831161117b57829003601f168201915b505050505081526020016009820180546111b190612bd8565b80601f01602080910402602001604051908101604052809291908181526020018280546111dd90612bd8565b801561122a5780601f106111ff5761010080835404028352916020019161122a565b820191906000526020600020905b81548152906001019060200180831161120d57829003601f168201915b50505050508152602001600a8201805461124390612bd8565b80601f016020809104026020016040519081016040528092919081815260200182805461126f90612bd8565b80156112bc5780601f10611291576101008083540402835291602001916112bc565b820191906000526020600020905b81548152906001019060200180831161129f57829003601f168201915b50505050508152602001600b820180546112d590612bd8565b80601f016020809104026020016040519081016040528092919081815260200182805461130190612bd8565b801561134e5780601f106113235761010080835404028352916020019161134e565b820191906000526020600020905b81548152906001019060200180831161133157829003601f168201915b50505050508152602001600c8201805461136790612bd8565b80601f016020809104026020016040519081016040528092919081815260200182805461139390612bd8565b80156113e05780601f106113b5576101008083540402835291602001916113e0565b820191906000526020600020905b8154815290600101906020018083116113c357829003601f168201915b50505050508152602001600d8201548152602001600e8201805461140390612bd8565b80601f016020809104026020016040519081016040528092919081815260200182805461142f90612bd8565b801561147c5780601f106114515761010080835404028352916020019161147c565b820191906000526020600020905b81548152906001019060200180831161145f57829003601f168201915b50505050508152602001600f8201805461149590612bd8565b80601f01602080910402602001604051908101604052809291908181526020018280546114c190612bd8565b801561150e5780601f106114e35761010080835404028352916020019161150e565b820191906000526020600020905b8154815290600101906020018083116114f157829003601f168201915b5050505050815260200160108201805461152790612bd8565b80601f016020809104026020016040519081016040528092919081815260200182805461155390612bd8565b80156115a05780601f10611575576101008083540402835291602001916115a0565b820191906000526020600020905b81548152906001019060200180831161158357829003601f168201915b505050505081526020016011820180546115b990612bd8565b80601f01602080910402602001604051908101604052809291908181526020018280546115e590612bd8565b80156116325780601f1061160757610100808354040283529160200191611632565b820191906000526020600020905b81548152906001019060200180831161161557829003601f168201915b505050918352505060128201546020820152601382015460408201526014820154606082015260158201546080820152601682015460a0820152601782015460c082015260189091015460ff16151560e0909101529392505050565b600081815260016020526040812060040154606091808267ffffffffffffffff8111156116bd576116bd6121c8565b6040519080825280602002602001820160405280156116f657816020015b6116e36120f5565b8152602001906001900390816116db5790505b50905060005b83811015612068576000868152600160208181526040808420858552600b01825292839020835161032081018552815481529281015491830191909152600281018054859492939284929084019161175390612bd8565b80601f016020809104026020016040519081016040528092919081815260200182805461177f90612bd8565b80156117cc5780601f106117a1576101008083540402835291602001916117cc565b820191906000526020600020905b8154815290600101906020018083116117af57829003601f168201915b505050505081526020016003820180546117e590612bd8565b80601f016020809104026020016040519081016040528092919081815260200182805461181190612bd8565b801561185e5780601f106118335761010080835404028352916020019161185e565b820191906000526020600020905b81548152906001019060200180831161184157829003601f168201915b5050505050815260200160048201805461187790612bd8565b80601f01602080910402602001604051908101604052809291908181526020018280546118a390612bd8565b80156118f05780601f106118c5576101008083540402835291602001916118f0565b820191906000526020600020905b8154815290600101906020018083116118d357829003601f168201915b5050505050815260200160058201805461190990612bd8565b80601f016020809104026020016040519081016040528092919081815260200182805461193590612bd8565b80156119825780601f1061195757610100808354040283529160200191611982565b820191906000526020600020905b81548152906001019060200180831161196557829003601f168201915b5050505050815260200160068201805461199b90612bd8565b80601f01602080910402602001604051908101604052809291908181526020018280546119c790612bd8565b8015611a145780601f106119e957610100808354040283529160200191611a14565b820191906000526020600020905b8154815290600101906020018083116119f757829003601f168201915b50505050508152602001600782018054611a2d90612bd8565b80601f0160208091040260200160405190810160405280929190818152602001828054611a5990612bd8565b8015611aa65780601f10611a7b57610100808354040283529160200191611aa6565b820191906000526020600020905b815481529060010190602001808311611a8957829003601f168201915b50505050508152602001600882018054611abf90612bd8565b80601f0160208091040260200160405190810160405280929190818152602001828054611aeb90612bd8565b8015611b385780601f10611b0d57610100808354040283529160200191611b38565b820191906000526020600020905b815481529060010190602001808311611b1b57829003601f168201915b50505050508152602001600982018054611b5190612bd8565b80601f0160208091040260200160405190810160405280929190818152602001828054611b7d90612bd8565b8015611bca5780601f10611b9f57610100808354040283529160200191611bca565b820191906000526020600020905b815481529060010190602001808311611bad57829003601f168201915b50505050508152602001600a82018054611be390612bd8565b80601f0160208091040260200160405190810160405280929190818152602001828054611c0f90612bd8565b8015611c5c5780601f10611c3157610100808354040283529160200191611c5c565b820191906000526020600020905b815481529060010190602001808311611c3f57829003601f168201915b50505050508152602001600b82018054611c7590612bd8565b80601f0160208091040260200160405190810160405280929190818152602001828054611ca190612bd8565b8015611cee5780601f10611cc357610100808354040283529160200191611cee565b820191906000526020600020905b815481529060010190602001808311611cd157829003601f168201915b50505050508152602001600c82018054611d0790612bd8565b80601f0160208091040260200160405190810160405280929190818152602001828054611d3390612bd8565b8015611d805780601f10611d5557610100808354040283529160200191611d80565b820191906000526020600020905b815481529060010190602001808311611d6357829003601f168201915b50505050508152602001600d8201548152602001600e82018054611da390612bd8565b80601f0160208091040260200160405190810160405280929190818152602001828054611dcf90612bd8565b8015611e1c5780601f10611df157610100808354040283529160200191611e1c565b820191906000526020600020905b815481529060010190602001808311611dff57829003601f168201915b50505050508152602001600f82018054611e3590612bd8565b80601f0160208091040260200160405190810160405280929190818152602001828054611e6190612bd8565b8015611eae5780601f10611e8357610100808354040283529160200191611eae565b820191906000526020600020905b815481529060010190602001808311611e9157829003601f168201915b50505050508152602001601082018054611ec790612bd8565b80601f0160208091040260200160405190810160405280929190818152602001828054611ef390612bd8565b8015611f405780601f10611f1557610100808354040283529160200191611f40565b820191906000526020600020905b815481529060010190602001808311611f2357829003601f168201915b50505050508152602001601182018054611f5990612bd8565b80601f0160208091040260200160405190810160405280929190818152602001828054611f8590612bd8565b8015611fd25780601f10611fa757610100808354040283529160200191611fd2565b820191906000526020600020905b815481529060010190602001808311611fb557829003601f168201915b505050918352505060128201546020820152601382015460408201526014820154606082015260158201546080820152601682015460a0820152601782015460c082015260189091015460ff16151560e090910152845185908790811061203b5761203b612b7d565b6020908102919091010152612051600186612bc0565b94505050808061206090612eb8565b9150506116fc565b50949350505050565b82805461207d90612bd8565b90600052602060002090601f01602090048101928261209f57600085556120e5565b82601f106120b857805160ff19168380011785556120e5565b828001600101855582156120e5579182015b828111156120e55782518255916020019190600101906120ca565b506120f19291506121b3565b5090565b6040518061032001604052806000815260200160008152602001606081526020016060815260200160608152602001606081526020016060815260200160608152602001606081526020016060815260200160608152602001606081526020016060815260200160008152602001606081526020016060815260200160608152602001606081526020016000815260200160008152602001600081526020016000815260200160008152602001600081526020016000151581525090565b5b808211156120f157600081556001016121b4565b634e487b7160e01b600052604160045260246000fd5b604051610320810167ffffffffffffffff81118282101715612202576122026121c8565b60405290565b60405160e0810167ffffffffffffffff81118282101715612202576122026121c8565b604051601f8201601f1916810167ffffffffffffffff81118282101715612254576122546121c8565b604052919050565b600082601f83011261226d57600080fd5b813567ffffffffffffffff811115612287576122876121c8565b61229a601f8201601f191660200161222b565b8181528460208386010111156122af57600080fd5b816020850160208301376000918101602001919091529392505050565b803580151581146122dc57600080fd5b919050565b600061032082840312156122f457600080fd5b6122fc6121de565b90508135815260208201356020820152604082013567ffffffffffffffff8082111561232757600080fd5b6123338583860161225c565b6040840152606084013591508082111561234c57600080fd5b6123588583860161225c565b6060840152608084013591508082111561237157600080fd5b61237d8583860161225c565b608084015260a084013591508082111561239657600080fd5b6123a28583860161225c565b60a084015260c08401359150808211156123bb57600080fd5b6123c78583860161225c565b60c084015260e08401359150808211156123e057600080fd5b6123ec8583860161225c565b60e08401526101009150818401358181111561240757600080fd5b6124138682870161225c565b83850152506101209150818401358181111561242e57600080fd5b61243a8682870161225c565b83850152506101409150818401358181111561245557600080fd5b6124618682870161225c565b83850152506101609150818401358181111561247c57600080fd5b6124888682870161225c565b8385015250610180915081840135818111156124a357600080fd5b6124af8682870161225c565b83850152506101a0915081840135828401526101c0915081840135818111156124d757600080fd5b6124e38682870161225c565b83850152506101e0915081840135818111156124fe57600080fd5b61250a8682870161225c565b83850152506102009150818401358181111561252557600080fd5b6125318682870161225c565b83850152506102209150818401358181111561254c57600080fd5b6125588682870161225c565b9284019290925250506102408281013590820152610260808301359082015261028080830135908201526102a080830135908201526102c080830135908201526102e080830135908201526103006125b18184016122cc565b9082015292915050565b600060208083850312156125ce57600080fd5b823567ffffffffffffffff808211156125e657600080fd5b818501915085601f8301126125fa57600080fd5b81358181111561260c5761260c6121c8565b8060051b61261b85820161222b565b918252838101850191858101908984111561263557600080fd5b86860192505b83831015612671578235858111156126535760008081fd5b6126618b89838a01016122e1565b835250918601919086019061263b565b9998505050505050505050565b60006020828403121561269057600080fd5b813567ffffffffffffffff8111156126a757600080fd5b6126b3848285016122e1565b949350505050565b6000602082840312156126cd57600080fd5b813567ffffffffffffffff808211156126e557600080fd5b9083019060e082860312156126f957600080fd5b612701612208565b8235815260208301358281111561271757600080fd5b6127238782860161225c565b60208301525060408301358281111561273b57600080fd5b6127478782860161225c565b604083015250606083013560608201526080830135608082015260a083013560a082015260c083013560c082015280935050505092915050565b6000815180845260005b818110156127a75760208185018101518683018201520161278b565b818111156127b9576000602083870101525b50601f01601f19169290920160200192915050565b60006020808301818452808551808352604092508286019150828160051b87010184880160005b838110156128a957603f19898403018552815161016081518552888201518986015287820151888601526060808301518187015250608080830151818701525060a080830151828288015261284c83880182612781565b9250505060c080830151868303828801526128678382612781565b60e085810151908901526101008086015190890152610120808601519089015261014094850151949097019390935250505093860193908601906001016127f5565b509098975050505050505050565b600080604083850312156128ca57600080fd5b50508035926020909101359150565b60006103208251845260208301516020850152604083015181604086015261290382860182612781565b9150506060830151848203606086015261291d8282612781565b915050608083015184820360808601526129378282612781565b91505060a083015184820360a08601526129518282612781565b91505060c083015184820360c086015261296b8282612781565b91505060e083015184820360e08601526129858282612781565b91505061010080840151858303828701526129a08382612781565b9250505061012080840151858303828701526129bc8382612781565b9250505061014080840151858303828701526129d88382612781565b9250505061016080840151858303828701526129f48382612781565b925050506101808084015185830382870152612a108382612781565b925050506101a08084015181860152506101c08084015185830382870152612a388382612781565b925050506101e08084015185830382870152612a548382612781565b925050506102008084015185830382870152612a708382612781565b925050506102208084015185830382870152612a8c8382612781565b6102408681015190880152610260808701519088015261028080870151908801526102a080870151908801526102c080870151908801526102e08087015190880152610300958601511515959096019490945250929392505050565b602081526000612afb60208301846128d9565b9392505050565b600060208284031215612b1457600080fd5b5035919050565b6000602080830181845280855180835260408601915060408160051b870101925083870160005b82811015612b7057603f19888603018452612b5e8583516128d9565b94509285019290850190600101612b42565b5092979650505050505050565b634e487b7160e01b600052603260045260246000fd5b634e487b7160e01b600052601160045260246000fd5b600082821015612bbb57612bbb612b93565b500390565b60008219821115612bd357612bd3612b93565b500190565b600181811c90821680612bec57607f821691505b60208210811415612c0d57634e487b7160e01b600052602260045260246000fd5b50919050565b8054600090600181811c9080831680612c2d57607f831692505b6020808410821415612c4f57634e487b7160e01b600052602260045260246000fd5b838852818015612c665760018114612c7a57612ca8565b60ff19861689830152604089019650612ca8565b876000528160002060005b86811015612ca05781548b8201850152908501908301612c85565b8a0183019750505b50505050505092915050565b6020815281546020820152600182015460408201526000610320806060840152612ce5610340840160028601612c13565b601f1980858303016080860152612cff8260038801612c13565b9150808583030160a0860152612d188260048801612c13565b9150808583030160c0860152612d318260058801612c13565b9150808583030160e0860152612d4a8260068801612c13565b91508085830301610100860152612d648260078801612c13565b91508085830301610120860152612d7e8260088801612c13565b91508085830301610140860152612d988260098801612c13565b91508085830301610160860152612db282600a8801612c13565b91508085830301610180860152612dcc82600b8801612c13565b915080858303016101a0860152612de682600c8801612c13565b9150600d8601546101c086015280858303016101e0860152612e0b82600e8801612c13565b91508085830301610200860152612e2582600f8801612c13565b91508085830301610220860152612e3f8260108801612c13565b9150808583030161024086015250612e5a8160118701612c13565b90506012850154610260850152601385015461028085015260148501546102a085015260158501546102c085015260168501546102e08501526017850154610300850152612eac601886015460ff1690565b80151585840152612068565b6000600019821415612ecc57612ecc612b93565b5060010190565b600061ffff80831681811415612eeb57612eeb612b93565b6001019392505050565b60006101008a8352896020840152806040840152612f158184018a612c13565b90508281036060840152612f298189612c13565b9150508560808301528460a08301528360c08301528260e0830152999850505050505050505056fea264697066735822122024ccd56f127387edbf2df435b718c5f78e897494f0acb0f63d8152c240d2a25964736f6c634300080c0033",
  "immutableReferences": {},
  "source": "// SPDX-License-Identifier: MIT\npragma solidity >=0.4.22 <0.9.0;\n\n\ncontract FXAuction {\n\n    uint auctionIdCount;\n\n    mapping(uint256 => Auction) auctionData;  //maps the _bidListingId to the bid\n\n\n    struct Auction {\n        uint auctionId;\n        uint _bidsAllocatedFunds;  //Keeps track of how many have been issued\n        uint rbzUSDBalance;\n        uint rbzZWLBalance;\n        uint _bidListingId;   //Uniquely identifies the bid increments\n        string auctionTitle;\n        string auctionType;\n        uint startTime;\n        uint endTime;\n        uint lowestBidPrice;\n        uint highestBidPrice;\n        mapping(uint256 => FxBidForm) primaryBidData;  //maps the _bidListingId to the bid\n    }\n\n\n\n    struct GetAuction {\n        uint auctionId;\n        uint _bidsAllocatedFunds;  //Keeps track of how many have been issued\n        uint rbzUSDBalance;\n        uint rbzZWLBalance;\n        uint _bidListingId;   //Uniquely identifies the bid increments\n        string auctionTitle;\n        string auctionType;\n        uint startTime;\n        uint endTime;\n        uint lowestBidPrice;\n        uint highestBidPrice;\n    }\n\n    struct SubmitAuction {\n        uint rbzUSDBalance;\n        string auctionTitle;\n        string auctionType;\n        uint startTime;\n        uint endTime;\n        uint lowestBidPrice;\n        uint highestBidPrice;\n    }\n\n    constructor() {\n    }\n\n    event BidSubmitted (\n        FxBidForm bid\n    );\n\n\n    event AuctionCreated (\n        uint indexed auctionId,\n        uint rbzUSDBalance,\n        uint rbzZWLBalance,\n        string auctionTitle,\n        string auctionType,\n        uint startTime,\n        uint endTime,\n        uint lowestBidPrice,\n        uint highestBidPrice\n    );\n    event BidAllocatedFunds (\n        FxBidForm bid\n    );\n\n\n    event TestEvent (\n        string message\n    );\n\n    struct FxBidForm {\n        uint fxBidFormListingId;  //identifies a bid\n        uint auctionId;\n\n        string applicantName;\n        string dateOfIncorporation;\n        string tradingCommencementDate;\n        string identificationNumber;\n        string categoryOfBidder; //Category\n        string physicalAddress;\n        string emailAddress;\n        string contactNumber;\n        string applicantBank;\n        string auctionRef;\n        string priorExhangeControlNumber;\n        uint date;\n\n\n        string economicSector;\n        string purposeOfFunds;\n        string descriptionOfGoods;\n        string ultimateBeneficiary;\n        uint bidAmountUSD;\n        uint bidExchangeRate;\n        uint zwlEquivalent;\n        uint currentBalanceZWL;\n        uint currentNostroBalanceUSD;\n\n        uint allocatedAmountBlance;\n        bool allocationStatus;\n    }\n\n    function submitAuction(SubmitAuction memory newAuction) public {\n\n        Auction storage a = auctionData[auctionIdCount];\n        a.auctionId = auctionIdCount++;\n        a.rbzUSDBalance = newAuction.rbzUSDBalance;\n        a.auctionTitle = newAuction.auctionTitle;\n        a.auctionType = newAuction.auctionType;\n        a.startTime = newAuction.startTime;\n        a.endTime = newAuction.endTime;\n        a.lowestBidPrice = newAuction.lowestBidPrice;\n        a.highestBidPrice = newAuction.highestBidPrice;\n\n        emit TestEvent (\n            \"testing\"\n        );\n\n        emit AuctionCreated (\n            a.auctionId,\n            a.rbzUSDBalance,\n            a.rbzZWLBalance,\n            a.auctionTitle,\n            a.auctionType,\n            a.startTime,\n            a.endTime,\n            a.lowestBidPrice,\n            a.highestBidPrice\n        );\n    }\n\n    function submitBid(FxBidForm memory fxBidForm) \n        public {\n        \n        require(fxBidForm.bidAmountUSD > 0, \"Price must be greater than 0\");\n        require(fxBidForm.bidExchangeRate >= auctionData[fxBidForm.auctionId].lowestBidPrice, \"Price below starting price\");    \n        require(fxBidForm.bidExchangeRate <= auctionData[fxBidForm.auctionId].highestBidPrice, \"Price above highest price\");\n        require(fxBidForm.zwlEquivalent <= fxBidForm.currentBalanceZWL, \"Insufficient funds in bank account\");     \n        require(fxBidForm.bidAmountUSD >= fxBidForm.currentNostroBalanceUSD, \"Bidder has sufficient USD in nostro accounts\");  \n        // require(fxBidForm.bidAmountUSD >= 2500\n        //       && fxBidForm.bidAmountUSD <= 500000\n        //       && !((20000 < fxBidForm.bidAmountUSD) && (fxBidForm.bidAmountUSD < 50000)), \"Bid amount is invalid\");  \n        require(fxBidForm.bidAmountUSD >= 2\n              && fxBidForm.bidAmountUSD <= 500000\n              && !((20000 < fxBidForm.bidAmountUSD) && (fxBidForm.bidAmountUSD < 50000)), \"Bid amount is invalid\");  \n\n\n        fxBidForm.fxBidFormListingId = auctionData[fxBidForm.auctionId]._bidListingId;  //Generate a bid number\n        // uint zwlEquival = bidAmountUSD*bidExchangeRate;\n\n         // mapping the new primary bid to our generated bif number\n\n         fxBidForm.allocatedAmountBlance = 0;\n         fxBidForm.allocationStatus = false;\n\n        auctionData[fxBidForm.auctionId].primaryBidData[auctionData[fxBidForm.auctionId]._bidListingId] = fxBidForm;\n\n        auctionData[fxBidForm.auctionId]._bidListingId++;\n\n        emit BidSubmitted (\n        fxBidForm\n    );\n\n\n    }\n\n    function getAllAuctionsCount() public view returns(uint){\n        return auctionIdCount;\n    }\n\n    function getAllPrimaryBids(uint auctionId) public view returns(FxBidForm[] memory) {\n        uint256 numberOfPrimaryBids = auctionData[auctionId]._bidListingId;\n        uint256 currentIndex = 0;\n\n        FxBidForm[] memory primaryActiveBids = new FxBidForm[](numberOfPrimaryBids);\n        \n        for(uint256 i = 0; i < numberOfPrimaryBids; i++) {\n                uint256 currentId = i;\n                FxBidForm storage currentItem = auctionData[auctionId].primaryBidData[currentId];\n                primaryActiveBids[currentIndex] = currentItem;\n                currentIndex += 1;\n        }\n\n        return primaryActiveBids;\n    }\n\n    function getAllAuctions() public view returns(GetAuction[] memory) {\n        uint256 currentIndex = 0;\n\n        GetAuction[] memory allAuctions = new GetAuction[](auctionIdCount);\n        \n        for(uint256 i = 0; i < auctionIdCount; i++) {\n                GetAuction memory currentItem = GetAuction(\n                    auctionData[currentIndex].auctionId,\n                    auctionData[currentIndex]._bidsAllocatedFunds, \n                    auctionData[currentIndex].rbzUSDBalance,\n                    auctionData[currentIndex].rbzZWLBalance,\n                    auctionData[currentIndex]._bidListingId,\n                    auctionData[currentIndex].auctionTitle,\n                    auctionData[currentIndex].auctionType,\n                    auctionData[currentIndex].startTime,\n                    auctionData[currentIndex].endTime,\n                    auctionData[currentIndex].lowestBidPrice,\n                    auctionData[currentIndex].highestBidPrice\n                    );\n                allAuctions[currentIndex] = currentItem;\n                currentIndex += 1;\n        }\n\n        return allAuctions;\n    }\n\n    // function sortBids() public view returns(FxBidForm[] memory) {\n        \n    //     uint numberOfPrimaryBids = _bidListingId;\n    //     uint currentIndex = 0;\n\n    //     BidDetails[] memory primaryBids = new BidDetails[](numberOfPrimaryBids);\n\n        \n    //     for(uint i = 0; i < numberOfPrimaryBids; i++) {\n    //             uint currentId = i;\n    //             BidDetails storage currentItem = primaryBidData[currentId];\n    //             primaryBids[currentIndex] = currentItem;\n    //             currentIndex += 1;\n    //     }\n\n    //     // Pass our primaryBids for sorting\n    //     quickSort(primaryBids, 0, numberOfPrimaryBids);\n\n    //     return primaryBids;\n    // }\n\n    //Allocate funds passinf the sortedPrimaryBids\n    function allocateFunds(\n        FxBidForm[] memory bids  //Array of primaryBids\n    ) public {\n        emit TestEvent (\n            \"testing\"\n        );\n\n        uint auctionId = bids[0].auctionId;\n        for (uint16 i = 0; i < bids.length; i++) {\n            uint index = bids.length -i-1; \n            if(auctionData[auctionId].rbzUSDBalance  < bids[index].bidAmountUSD){\n                break;\n            }else{\n                FxBidForm storage bid = auctionData[auctionId].primaryBidData[bids[index].fxBidFormListingId];\n                bid.allocatedAmountBlance = bids[index].bidAmountUSD;\n                auctionData[auctionId].rbzUSDBalance = auctionData[auctionId].rbzUSDBalance - bids[index].bidAmountUSD;\n                auctionData[auctionId].rbzZWLBalance = auctionData[auctionId].rbzZWLBalance + bids[index].zwlEquivalent;\n\n                auctionData[auctionId].primaryBidData[bids[index].fxBidFormListingId].allocationStatus = true;\n\n                emit BidAllocatedFunds (\n                    bid\n                );\n\n                auctionData[auctionId]._bidsAllocatedFunds++;\n\n            }\n        }\n\n    }\n\n    function findPrimaryBidById(uint256 fxBidFormListingId, uint auctionId) public view returns(FxBidForm memory) {\n        return auctionData[auctionId].primaryBidData[fxBidFormListingId];\n    }\n\n\n    // function quickSort(FxBidForm[] memory bids, uint left, uint right) public view {\n    //     uint i = left;\n    //     uint j = right;\n    //     if (i == j) return;\n    //     uint pivotExchangeRate = bids[uint(left + (right - left) / 2)].bidExchangeRate; //pivotExchangeRate is the value at midpoint bids[i].amount\n    //     // require(pivotExchangeRate == 128, \"Original pivot != 3\");\n\n    //     while (i <= j) {\n    //         while (bids[uint(i)].bidExchangeRate < pivotExchangeRate) i++;\n    //         while (pivotExchangeRate < bids[uint(j)].bidExchangeRate) j--;\n    //         if (i <= j) {\n    //             (bids[uint(i)], bids[uint(j)]) = (bids[uint(j)], bids[uint(i)]);  //Assuming this is swapping\n    //             i++;\n    //             j--;\n    //         }\n    //     }\n    //     if (left < j){\n    //         quickSort(bids, left, j);\n    //     }\n    //     if (i < right){\n    //         quickSort(bids, i, right);\n    //     }\n    // }\n}\n",
  "sourcePath": "/Users/tafarambano/Desktop/test-truffle/contracts/FxAuction.sol",
  "compiler": {
    "name": "solc",
    "version": "0.8.12+commit.f00d7308.Emscripten.clang"
  },
  "schemaVersion": "3.4.5",
  "updatedAt": "2022-05-30T13:32:09.820Z",
  "networkType": "ethereum",
  "devdoc": {
    "kind": "dev",
    "methods": {},
    "version": 1
  },
  "userdoc": {
    "kind": "user",
    "methods": {},
    "version": 1
  }
}