{
  "contractName": "FXAuction",
  "abi": [
    {
      "inputs": [],
      "stateMutability": "nonpayable",
      "type": "constructor"
    },
    {
      "inputs": [
        {
          "components": [
            {
              "internalType": "uint256",
              "name": "fxBidFormListingId",
              "type": "uint256"
            },
            {
              "internalType": "string",
              "name": "applicantName",
              "type": "string"
            },
            {
              "internalType": "string",
              "name": "dateOfIncorporation",
              "type": "string"
            },
            {
              "internalType": "string",
              "name": "tradingCommencementDate",
              "type": "string"
            },
            {
              "internalType": "string",
              "name": "identificationNumber",
              "type": "string"
            },
            {
              "internalType": "string",
              "name": "categoryOfBidder",
              "type": "string"
            },
            {
              "internalType": "string",
              "name": "physicalAddress",
              "type": "string"
            },
            {
              "internalType": "string",
              "name": "emailAddress",
              "type": "string"
            },
            {
              "internalType": "string",
              "name": "contactNumber",
              "type": "string"
            },
            {
              "internalType": "string",
              "name": "applicantBank",
              "type": "string"
            },
            {
              "internalType": "string",
              "name": "auctionRef",
              "type": "string"
            },
            {
              "internalType": "string",
              "name": "priorExhangeControlNumber",
              "type": "string"
            },
            {
              "internalType": "uint256",
              "name": "date",
              "type": "uint256"
            },
            {
              "internalType": "string",
              "name": "economicSector",
              "type": "string"
            },
            {
              "internalType": "string",
              "name": "purposeOfFunds",
              "type": "string"
            },
            {
              "internalType": "string",
              "name": "descriptionOfGoods",
              "type": "string"
            },
            {
              "internalType": "string",
              "name": "ultimateBeneficiary",
              "type": "string"
            },
            {
              "internalType": "uint256",
              "name": "bidAmountUSD",
              "type": "uint256"
            },
            {
              "internalType": "uint256",
              "name": "bidExchangeRate",
              "type": "uint256"
            },
            {
              "internalType": "uint256",
              "name": "zwlEquivalent",
              "type": "uint256"
            },
            {
              "internalType": "uint256",
              "name": "currentBalanceZWL",
              "type": "uint256"
            },
            {
              "internalType": "uint256",
              "name": "currentNostroBalanceUSD",
              "type": "uint256"
            },
            {
              "internalType": "uint256",
              "name": "allocatedAmountBlance",
              "type": "uint256"
            },
            {
              "internalType": "bool",
              "name": "allocationStatus",
              "type": "bool"
            }
          ],
          "internalType": "struct FXAuction.FxBidForm",
          "name": "fxBidForm",
          "type": "tuple"
        }
      ],
      "name": "submitBid",
      "outputs": [],
      "stateMutability": "nonpayable",
      "type": "function"
    },
    {
      "inputs": [],
      "name": "getAllPrimaryBids",
      "outputs": [
        {
          "components": [
            {
              "internalType": "uint256",
              "name": "fxBidFormListingId",
              "type": "uint256"
            },
            {
              "internalType": "uint256",
              "name": "bidAmountUSD",
              "type": "uint256"
            },
            {
              "internalType": "uint256",
              "name": "bidExchangeRate",
              "type": "uint256"
            },
            {
              "internalType": "uint256",
              "name": "zwlEquivalent",
              "type": "uint256"
            },
            {
              "internalType": "uint256",
              "name": "allocatedAmountBlance",
              "type": "uint256"
            },
            {
              "internalType": "bool",
              "name": "allocationStatus",
              "type": "bool"
            }
          ],
          "internalType": "struct FXAuction.BidDetails[]",
          "name": "",
          "type": "tuple[]"
        }
      ],
      "stateMutability": "view",
      "type": "function"
    },
    {
      "inputs": [],
      "name": "sortBids",
      "outputs": [
        {
          "components": [
            {
              "internalType": "uint256",
              "name": "fxBidFormListingId",
              "type": "uint256"
            },
            {
              "internalType": "uint256",
              "name": "bidAmountUSD",
              "type": "uint256"
            },
            {
              "internalType": "uint256",
              "name": "bidExchangeRate",
              "type": "uint256"
            },
            {
              "internalType": "uint256",
              "name": "zwlEquivalent",
              "type": "uint256"
            },
            {
              "internalType": "uint256",
              "name": "allocatedAmountBlance",
              "type": "uint256"
            },
            {
              "internalType": "bool",
              "name": "allocationStatus",
              "type": "bool"
            }
          ],
          "internalType": "struct FXAuction.BidDetails[]",
          "name": "",
          "type": "tuple[]"
        }
      ],
      "stateMutability": "view",
      "type": "function"
    },
    {
      "inputs": [
        {
          "components": [
            {
              "internalType": "uint256",
              "name": "fxBidFormListingId",
              "type": "uint256"
            },
            {
              "internalType": "string",
              "name": "applicantName",
              "type": "string"
            },
            {
              "internalType": "string",
              "name": "dateOfIncorporation",
              "type": "string"
            },
            {
              "internalType": "string",
              "name": "tradingCommencementDate",
              "type": "string"
            },
            {
              "internalType": "string",
              "name": "identificationNumber",
              "type": "string"
            },
            {
              "internalType": "string",
              "name": "categoryOfBidder",
              "type": "string"
            },
            {
              "internalType": "string",
              "name": "physicalAddress",
              "type": "string"
            },
            {
              "internalType": "string",
              "name": "emailAddress",
              "type": "string"
            },
            {
              "internalType": "string",
              "name": "contactNumber",
              "type": "string"
            },
            {
              "internalType": "string",
              "name": "applicantBank",
              "type": "string"
            },
            {
              "internalType": "string",
              "name": "auctionRef",
              "type": "string"
            },
            {
              "internalType": "string",
              "name": "priorExhangeControlNumber",
              "type": "string"
            },
            {
              "internalType": "uint256",
              "name": "date",
              "type": "uint256"
            },
            {
              "internalType": "string",
              "name": "economicSector",
              "type": "string"
            },
            {
              "internalType": "string",
              "name": "purposeOfFunds",
              "type": "string"
            },
            {
              "internalType": "string",
              "name": "descriptionOfGoods",
              "type": "string"
            },
            {
              "internalType": "string",
              "name": "ultimateBeneficiary",
              "type": "string"
            },
            {
              "internalType": "uint256",
              "name": "bidAmountUSD",
              "type": "uint256"
            },
            {
              "internalType": "uint256",
              "name": "bidExchangeRate",
              "type": "uint256"
            },
            {
              "internalType": "uint256",
              "name": "zwlEquivalent",
              "type": "uint256"
            },
            {
              "internalType": "uint256",
              "name": "currentBalanceZWL",
              "type": "uint256"
            },
            {
              "internalType": "uint256",
              "name": "currentNostroBalanceUSD",
              "type": "uint256"
            },
            {
              "internalType": "uint256",
              "name": "allocatedAmountBlance",
              "type": "uint256"
            },
            {
              "internalType": "bool",
              "name": "allocationStatus",
              "type": "bool"
            }
          ],
          "internalType": "struct FXAuction.FxBidForm[]",
          "name": "bids",
          "type": "tuple[]"
        }
      ],
      "name": "allocateFunds",
      "outputs": [],
      "stateMutability": "nonpayable",
      "type": "function"
    },
    {
      "inputs": [
        {
          "internalType": "uint256",
          "name": "fxBidFormListingId",
          "type": "uint256"
        }
      ],
      "name": "findPrimaryBidById",
      "outputs": [
        {
          "components": [
            {
              "internalType": "uint256",
              "name": "fxBidFormListingId",
              "type": "uint256"
            },
            {
              "internalType": "uint256",
              "name": "bidAmountUSD",
              "type": "uint256"
            },
            {
              "internalType": "uint256",
              "name": "bidExchangeRate",
              "type": "uint256"
            },
            {
              "internalType": "uint256",
              "name": "zwlEquivalent",
              "type": "uint256"
            },
            {
              "internalType": "uint256",
              "name": "allocatedAmountBlance",
              "type": "uint256"
            },
            {
              "internalType": "bool",
              "name": "allocationStatus",
              "type": "bool"
            }
          ],
          "internalType": "struct FXAuction.BidDetails",
          "name": "",
          "type": "tuple"
        }
      ],
      "stateMutability": "view",
      "type": "function"
    },
    {
      "inputs": [
        {
          "components": [
            {
              "internalType": "uint256",
              "name": "fxBidFormListingId",
              "type": "uint256"
            },
            {
              "internalType": "uint256",
              "name": "bidAmountUSD",
              "type": "uint256"
            },
            {
              "internalType": "uint256",
              "name": "bidExchangeRate",
              "type": "uint256"
            },
            {
              "internalType": "uint256",
              "name": "zwlEquivalent",
              "type": "uint256"
            },
            {
              "internalType": "uint256",
              "name": "allocatedAmountBlance",
              "type": "uint256"
            },
            {
              "internalType": "bool",
              "name": "allocationStatus",
              "type": "bool"
            }
          ],
          "internalType": "struct FXAuction.BidDetails[]",
          "name": "bids",
          "type": "tuple[]"
        },
        {
          "internalType": "uint256",
          "name": "left",
          "type": "uint256"
        },
        {
          "internalType": "uint256",
          "name": "right",
          "type": "uint256"
        }
      ],
      "name": "quickSort",
      "outputs": [],
      "stateMutability": "view",
      "type": "function"
    }
  ],
  "bytecode": "0x60806040526064600455600060055534801561001a57600080fd5b506113318061002a6000396000f3fe608060405234801561001057600080fd5b50600436106100625760003560e01c80632658cbcf14610067578063735914501461008557806373f87375146100a5578063e1636287146100ba578063f6026ff2146100cd578063fb0a582a146100d5575b600080fd5b61006f6100e8565b60405161007c9190610b15565b60405180910390f35b610098610093366004610b9a565b610200565b60405161007c9190610bb3565b6100b86100b3366004610fe5565b610263565b005b6100b86100c8366004611046565b610621565b61006f6107aa565b6100b86100e33660046110fc565b6108b6565b60008054606091808267ffffffffffffffff81111561010957610109610bfe565b60405190808252806020026020018201604052801561014257816020015b61012f610a44565b8152602001906001900390816101275790505b50905060005b838110156101ec57600081815260026020818152604092839020835160c0810185528154815260018201549281019290925291820154928101929092526003810154606083015260048101546080830152600581015460ff16151560a083015283518392908590879081106101bf576101bf6111ef565b60209081029190910101526101d560018661121b565b9450505080806101e490611233565b915050610148565b506101f9816000856108b6565b9392505050565b610208610a44565b50600090815260026020818152604092839020835160c08101855281548152600182015492810192909252918201549281019290925260038101546060830152600481015460808301526005015460ff16151560a082015290565b6000816102200151116102bc5760405162461bcd60e51b815260206004820152601c60248201527f5072696365206d7573742062652067726561746572207468616e203000000000604482015260640160405180910390fd5b6000548160000181815250506040518060c001604052808260000151815260200182610220015181526020018261024001518152602001826102600151815260200160008152602001600015158152506002600080548152602001908152602001600020600082015181600001556020820151816001015560408201518160020155606082015181600301556080820151816004015560a08201518160050160006101000a81548160ff02191690831515021790555090505060405180610220016040528082600001518152602001826020015181526020018260400151815260200182606001518152602001826080015181526020018260a0015181526020018260c0015181526020018260e00151815260200182610100015181526020018261012001518152602001826101400151815260200182610160015181526020018261018001518152602001826101a001518152602001826101c001518152602001826101e001518152602001826102000151815250600360008054815260200190815260200160002060008201518160000155602082015181600101908051906020019061046c929190610a7c565b5060408201518051610488916002840191602090910190610a7c565b50606082015180516104a4916003840191602090910190610a7c565b50608082015180516104c0916004840191602090910190610a7c565b5060a082015180516104dc916005840191602090910190610a7c565b5060c082015180516104f8916006840191602090910190610a7c565b5060e08201518051610514916007840191602090910190610a7c565b506101008201518051610531916008840191602090910190610a7c565b50610120820151805161054e916009840191602090910190610a7c565b50610140820151805161056b91600a840191602090910190610a7c565b50610160820151805161058891600b840191602090910190610a7c565b50610180820151600c8201556101a082015180516105b091600d840191602090910190610a7c565b506101c082015180516105cd91600e840191602090910190610a7c565b506101e082015180516105ea91600f840191602090910190610a7c565b506102008201518051610607916010840191602090910190610a7c565b50506000805491508061061983611233565b919050555050565b60005b81518161ffff1610156107a657600060018261ffff168451610646919061124e565b610650919061124e565b9050828181518110610664576106646111ef565b60200260200101516102200151600454101561067f57505050565b828181518110610691576106916111ef565b60200260200101516102200151600260008584815181106106b4576106b46111ef565b6020026020010151600001518152602001908152602001600020600401819055508281815181106106e7576106e76111ef565b60200260200101516102200151600454610701919061124e565b6004558251839082908110610718576107186111ef565b60200260200101516102600151600554610732919061121b565b600581905550600160026000858481518110610750576107506111ef565b6020908102919091018101515182528101919091526040016000908120600501805460ff191692151592909217909155600180549161078e83611233565b9190505550508061079e81611265565b915050610624565b5050565b60008054606091808267ffffffffffffffff8111156107cb576107cb610bfe565b60405190808252806020026020018201604052801561080457816020015b6107f1610a44565b8152602001906001900390816107e95790505b50905060005b838110156108ae57600081815260026020818152604092839020835160c0810185528154815260018201549281019290925291820154928101929092526003810154606083015260048101546080830152600581015460ff16151560a08301528351839290859087908110610881576108816111ef565b602090810291909101015261089760018661121b565b9450505080806108a690611233565b91505061080a565b509392505050565b8181808214156108c7575050505050565b60008560026108d6878761124e565b6108e09190611287565b6108ea908761121b565b815181106108fa576108fa6111ef565b60200260200101516040015190505b818311610a16575b80868481518110610924576109246111ef565b6020026020010151604001511015610948578261094081611233565b935050610911565b85828151811061095a5761095a6111ef565b60200260200101516040015181101561097f5781610977816112a9565b925050610948565b818311610a1157858281518110610998576109986111ef565b60200260200101518684815181106109b2576109b26111ef565b60200260200101518785815181106109cc576109cc6111ef565b602002602001018885815181106109e5576109e56111ef565b60200260200101829052829052505082806109ff90611233565b9350508180610a0d906112a9565b9250505b610909565b81851015610a2957610a298686846108b6565b83831015610a3c57610a3c8684866108b6565b505050505050565b6040518060c0016040528060008152602001600081526020016000815260200160008152602001600081526020016000151581525090565b828054610a88906112c0565b90600052602060002090601f016020900481019282610aaa5760008555610af0565b82601f10610ac357805160ff1916838001178555610af0565b82800160010185558215610af0579182015b82811115610af0578251825591602001919060010190610ad5565b50610afc929150610b00565b5090565b5b80821115610afc5760008155600101610b01565b6020808252825182820181905260009190848201906040850190845b81811015610b8e57610b7b838551805182526020810151602083015260408101516040830152606081015160608301526080810151608083015260a0810151151560a08301525050565b9284019260c09290920191600101610b31565b50909695505050505050565b600060208284031215610bac57600080fd5b5035919050565b60c08101610bf88284805182526020810151602083015260408101516040830152606081015160608301526080810151608083015260a0810151151560a08301525050565b92915050565b634e487b7160e01b600052604160045260246000fd5b604051610300810167ffffffffffffffff81118282101715610c3857610c38610bfe565b60405290565b60405160c0810167ffffffffffffffff81118282101715610c3857610c38610bfe565b604051601f8201601f1916810167ffffffffffffffff81118282101715610c8a57610c8a610bfe565b604052919050565b600082601f830112610ca357600080fd5b813567ffffffffffffffff811115610cbd57610cbd610bfe565b610cd0601f8201601f1916602001610c61565b818152846020838601011115610ce557600080fd5b816020850160208301376000918101602001919091529392505050565b80358015158114610d1257600080fd5b919050565b60006103008284031215610d2a57600080fd5b610d32610c14565b905081358152602082013567ffffffffffffffff80821115610d5357600080fd5b610d5f85838601610c92565b60208401526040840135915080821115610d7857600080fd5b610d8485838601610c92565b60408401526060840135915080821115610d9d57600080fd5b610da985838601610c92565b60608401526080840135915080821115610dc257600080fd5b610dce85838601610c92565b608084015260a0840135915080821115610de757600080fd5b610df385838601610c92565b60a084015260c0840135915080821115610e0c57600080fd5b610e1885838601610c92565b60c084015260e0840135915080821115610e3157600080fd5b610e3d85838601610c92565b60e084015261010091508184013581811115610e5857600080fd5b610e6486828701610c92565b838501525061012091508184013581811115610e7f57600080fd5b610e8b86828701610c92565b838501525061014091508184013581811115610ea657600080fd5b610eb286828701610c92565b838501525061016091508184013581811115610ecd57600080fd5b610ed986828701610c92565b8385015250610180915081840135828401526101a091508184013581811115610f0157600080fd5b610f0d86828701610c92565b83850152506101c091508184013581811115610f2857600080fd5b610f3486828701610c92565b83850152506101e091508184013581811115610f4f57600080fd5b610f5b86828701610c92565b838501525061020091508184013581811115610f7657600080fd5b610f8286828701610c92565b92840192909252505061022082810135908201526102408083013590820152610260808301359082015261028080830135908201526102a080830135908201526102c080830135908201526102e0610fdb818401610d02565b9082015292915050565b600060208284031215610ff757600080fd5b813567ffffffffffffffff81111561100e57600080fd5b61101a84828501610d17565b949350505050565b600067ffffffffffffffff82111561103c5761103c610bfe565b5060051b60200190565b6000602080838503121561105957600080fd5b823567ffffffffffffffff8082111561107157600080fd5b818501915085601f83011261108557600080fd5b813561109861109382611022565b610c61565b81815260059190911b830184019084810190888311156110b757600080fd5b8585015b838110156110ef578035858111156110d35760008081fd5b6110e18b89838a0101610d17565b8452509186019186016110bb565b5098975050505050505050565b6000806000606080858703121561111257600080fd5b843567ffffffffffffffff81111561112957600080fd5b8501601f8101871361113a57600080fd5b8035602061114a61109383611022565b82815260c0928302840182019282820191908b85111561116957600080fd5b948301945b848610156111d65780868d0312156111865760008081fd5b61118e610c3e565b8635815284870135858201526040808801359082015287870135888201526080808801359082015260a06111c3818901610d02565b908201528352948501949183019161116e565b509a918901359950506040909701359695505050505050565b634e487b7160e01b600052603260045260246000fd5b634e487b7160e01b600052601160045260246000fd5b6000821982111561122e5761122e611205565b500190565b600060001982141561124757611247611205565b5060010190565b60008282101561126057611260611205565b500390565b600061ffff8083168181141561127d5761127d611205565b6001019392505050565b6000826112a457634e487b7160e01b600052601260045260246000fd5b500490565b6000816112b8576112b8611205565b506000190190565b600181811c908216806112d457607f821691505b602082108114156112f557634e487b7160e01b600052602260045260246000fd5b5091905056fea2646970667358221220e3c7281f48de98f4df11557230ca56ed19eca3bd308f6b55d40009e56944426f64736f6c634300080c0033",
  "immutableReferences": {},
  "source": "// SPDX-License-Identifier: MIT\npragma solidity >=0.4.22 <0.9.0;\n\n\ncontract FXAuction {\n\n    uint private _bidListingId;   //Uniquely identifies the bid increments\n    uint private _bidsAllocatedFunds;  //Keeps track of how many have been issued\n\n\n    mapping(uint256 => BidDetails) private primaryBidData;  //maps the _bidListingId to the bid\n    mapping(uint256 => BidderDetails) private primaryBidderData;  //maps the _bidListingId to the bidder\n\n\n    uint rbzUSDBalance = 100;\n    uint rbzZWLBalance = 0;\n\n    constructor() {\n    }\n\n    struct FxBidForm {\n        uint fxBidFormListingId;  //identifies a bid\n\n        string applicantName;\n        string dateOfIncorporation;\n        string tradingCommencementDate;\n        string identificationNumber;\n        string categoryOfBidder; //Category\n        string physicalAddress;\n        string emailAddress;\n        string contactNumber;\n        string applicantBank;\n        string auctionRef;\n        string priorExhangeControlNumber;\n        uint date;\n\n\n        string economicSector;\n        string purposeOfFunds;\n        string descriptionOfGoods;\n        string ultimateBeneficiary;\n        uint bidAmountUSD;\n        uint bidExchangeRate;\n        uint zwlEquivalent;\n        uint currentBalanceZWL;\n        uint currentNostroBalanceUSD;\n\n        uint allocatedAmountBlance;\n        bool allocationStatus;\n    }\n\n\n    struct BidDetails {\n        uint fxBidFormListingId;  //identifies a bid\n        // string categoryOfBidder; //Category\n        uint bidAmountUSD;\n        uint bidExchangeRate;\n        uint zwlEquivalent;\n        // uint currentBalanceZWL;\n        // uint currentNostroBalanceUSD;\n\n        uint allocatedAmountBlance;\n        bool allocationStatus;\n    }\n\n    struct BidderDetails {\n        uint fxBidFormListingId;  //identifies a bid\n\n        string applicantName;\n        string dateOfIncorporation;\n        string tradingCommencementDate;\n        string identificationNumber;\n        string categoryOfBidder; //Category\n        string physicalAddress;\n        string emailAddress;\n        string contactNumber;\n        string applicantBank;\n        string auctionRef;\n        string priorExhangeControlNumber;\n        uint date;\n\n\n        string economicSector;\n        string purposeOfFunds;\n        string descriptionOfGoods;\n        string ultimateBeneficiary;\n\n    }\n    function submitBid(FxBidForm memory fxBidForm) \n        public {\n        \n        require(fxBidForm.bidAmountUSD > 0, \"Price must be greater than 0\");\n\n        fxBidForm.fxBidFormListingId = _bidListingId;  //Generate a bid number\n        // uint zwlEquival = bidAmountUSD*bidExchangeRate;\n\n         // mapping the new primary bid to our generated bif number\n\n        primaryBidData[_bidListingId] = BidDetails(\n            fxBidForm.fxBidFormListingId,\n            // fxBidForm.categoryOfBidder,\n            fxBidForm.bidAmountUSD,\n            fxBidForm.bidExchangeRate,\n            fxBidForm.zwlEquivalent,\n            // fxBidForm.currentBalanceZWL,\n            // fxBidForm.currentNostroBalanceUSD,\n            0,\n            false\n            );\n            \n        primaryBidderData[_bidListingId] = BidderDetails(\n        fxBidForm.fxBidFormListingId,  \n        fxBidForm.applicantName,\n        fxBidForm.dateOfIncorporation,\n        fxBidForm.tradingCommencementDate,\n        fxBidForm.identificationNumber,\n        fxBidForm.categoryOfBidder,\n        fxBidForm.physicalAddress,\n        fxBidForm.emailAddress,\n        fxBidForm.contactNumber,\n        fxBidForm.applicantBank,\n        fxBidForm.auctionRef,\n        fxBidForm.priorExhangeControlNumber,\n        fxBidForm.date,\n\n\n        fxBidForm.economicSector,\n        fxBidForm.purposeOfFunds,\n        fxBidForm.descriptionOfGoods,\n        fxBidForm.ultimateBeneficiary\n        );\n\n        \n        // FxBidForm(fxBidFormListingId,\n        //     applicantName,\n        //     dateOfIncorporation,\n        //     tradingCommencementDate,\n        //     identificationNumber,\n        //     categoryOfBidder,\n        //     physicalAddress,\n        //     emailAddress,\n        //     contactNumber,\n        //     applicantBank,\n        //     auctionRef,\n        //     priorExhangeControlNumber,\n        //     date,\n        //     economicSector,\n        //     purposeOfFunds,\n        //     descriptionOfGoods,\n        //     ultimateBeneficiary,\n        //     bidAmountUSD,\n        //     bidExchangeRate,\n        //     zwlEquivalent,\n        //     currentBalanceZWL,\n        //     currentNostroBalanceUSD,\n        //     0,\n        //     false\n        // );\n\n        _bidListingId++;\n\n    }\n\n    function getAllPrimaryBids() public view returns(BidDetails[] memory) {\n        uint256 numberOfPrimaryBids = _bidListingId;\n        uint256 currentIndex = 0;\n\n        BidDetails[] memory primaryActiveBids = new BidDetails[](numberOfPrimaryBids);\n        \n        for(uint256 i = 0; i < numberOfPrimaryBids; i++) {\n                uint256 currentId = i;\n                BidDetails storage currentItem = primaryBidData[currentId];\n                primaryActiveBids[currentIndex] = currentItem;\n                currentIndex += 1;\n        }\n\n        return primaryActiveBids;\n    }\n\n    function sortBids() public view returns(BidDetails[] memory) {\n        \n        uint numberOfPrimaryBids = _bidListingId;\n        uint currentIndex = 0;\n\n        BidDetails[] memory primaryBids = new BidDetails[](numberOfPrimaryBids);\n\n        \n        for(uint i = 0; i < numberOfPrimaryBids; i++) {\n                uint currentId = i;\n                BidDetails storage currentItem = primaryBidData[currentId];\n                primaryBids[currentIndex] = currentItem;\n                currentIndex += 1;\n        }\n\n        // Pass our primaryBids for sorting\n        quickSort(primaryBids, 0, numberOfPrimaryBids);\n\n        return primaryBids;\n    }\n\n    //Allocate funds passinf the sortedPrimaryBids\n    function allocateFunds(\n        FxBidForm[] memory bids  //Array of primaryBids\n    ) public {\n\n\n        for (uint16 i = 0; i < bids.length; i++) {\n            uint index = bids.length -i-1;\n            if(rbzUSDBalance  < bids[index].bidAmountUSD){\n                break;\n            }else{\n\n                primaryBidData[bids[index].fxBidFormListingId].allocatedAmountBlance = bids[index].bidAmountUSD;\n                rbzUSDBalance = rbzUSDBalance - bids[index].bidAmountUSD;\n                rbzZWLBalance = rbzZWLBalance + bids[index].zwlEquivalent;\n\n                primaryBidData[bids[index].fxBidFormListingId].allocationStatus = true;\n\n                _bidsAllocatedFunds++;\n            }\n        }\n\n    }\n\n    function findPrimaryBidById(uint256 fxBidFormListingId) public view returns(BidDetails memory) {\n        return primaryBidData[fxBidFormListingId];\n    }\n\n\n    function quickSort(BidDetails[] memory bids, uint left, uint right) public view {\n        uint i = left;\n        uint j = right;\n        if (i == j) return;\n        uint pivotExchangeRate = bids[uint(left + (right - left) / 2)].bidExchangeRate; //pivotExchangeRate is the value at midpoint bids[i].amount\n        // require(pivotExchangeRate == 128, \"Original pivot != 3\");\n\n        while (i <= j) {\n            while (bids[uint(i)].bidExchangeRate < pivotExchangeRate) i++;\n            while (pivotExchangeRate < bids[uint(j)].bidExchangeRate) j--;\n            if (i <= j) {\n                (bids[uint(i)], bids[uint(j)]) = (bids[uint(j)], bids[uint(i)]);  //Assuming this is swapping\n                i++;\n                j--;\n            }\n        }\n        if (left < j){\n            quickSort(bids, left, j);\n        }\n        if (i < right){\n            quickSort(bids, i, right);\n        }\n    }\n}\n",
  "sourcePath": "/Users/tafarambano/Desktop/test-truffle/contracts/FxAuction.sol",
  "compiler": {
    "name": "solc",
    "version": "0.8.12+commit.f00d7308.Emscripten.clang"
  },
  "schemaVersion": "3.4.5",
  "updatedAt": "2022-04-14T07:09:39.647Z",
  "devdoc": {
    "kind": "dev",
    "methods": {},
    "version": 1
  },
  "userdoc": {
    "kind": "user",
    "methods": {},
    "version": 1
  }
}