{
  "contractName": "FXAuctions",
  "abi": [
    {
      "inputs": [
        {
          "internalType": "uint256",
          "name": "_totalAuctionAmountUSD",
          "type": "uint256"
        },
        {
          "internalType": "uint256",
          "name": "_bidSubmitionCloseTime",
          "type": "uint256"
        },
        {
          "internalType": "uint256",
          "name": "_highestBidPrice",
          "type": "uint256"
        },
        {
          "internalType": "uint256",
          "name": "_lowestBidPrice",
          "type": "uint256"
        }
      ],
      "stateMutability": "nonpayable",
      "type": "constructor"
    },
    {
      "inputs": [],
      "name": "numberOfAuctioneers",
      "outputs": [
        {
          "internalType": "uint256",
          "name": "",
          "type": "uint256"
        }
      ],
      "stateMutability": "view",
      "type": "function"
    },
    {
      "inputs": [],
      "name": "getAvailableBidBalance",
      "outputs": [
        {
          "internalType": "uint256",
          "name": "",
          "type": "uint256"
        }
      ],
      "stateMutability": "view",
      "type": "function"
    },
    {
      "inputs": [],
      "name": "getNumberOfBidders",
      "outputs": [
        {
          "internalType": "uint256",
          "name": "",
          "type": "uint256"
        }
      ],
      "stateMutability": "view",
      "type": "function"
    },
    {
      "inputs": [
        {
          "components": [
            {
              "internalType": "uint256",
              "name": "_id",
              "type": "uint256"
            },
            {
              "internalType": "string",
              "name": "_applicantName",
              "type": "string"
            },
            {
              "internalType": "string",
              "name": "_dateOfIncorporation",
              "type": "string"
            },
            {
              "internalType": "string",
              "name": "_tradingCommencementDate",
              "type": "string"
            },
            {
              "internalType": "string",
              "name": "_identificationNumber",
              "type": "string"
            },
            {
              "internalType": "string",
              "name": "_categoryOfBidder",
              "type": "string"
            },
            {
              "internalType": "string",
              "name": "_physicalAddress",
              "type": "string"
            },
            {
              "internalType": "string",
              "name": "_emailAddress",
              "type": "string"
            },
            {
              "internalType": "string",
              "name": "_contactNumber",
              "type": "string"
            },
            {
              "internalType": "string",
              "name": "_applicantBank",
              "type": "string"
            },
            {
              "internalType": "string",
              "name": "_auctionRef",
              "type": "string"
            },
            {
              "internalType": "string",
              "name": "_priorExhangeControlNumber",
              "type": "string"
            },
            {
              "internalType": "uint256",
              "name": "_date",
              "type": "uint256"
            },
            {
              "internalType": "string",
              "name": "_economicSector",
              "type": "string"
            },
            {
              "internalType": "string",
              "name": "_purposeOfFunds",
              "type": "string"
            },
            {
              "internalType": "string",
              "name": "_descriptionOfGoods",
              "type": "string"
            },
            {
              "internalType": "string",
              "name": "_ultimateBeneficiary",
              "type": "string"
            },
            {
              "internalType": "uint256",
              "name": "_bidAmountUSD",
              "type": "uint256"
            },
            {
              "internalType": "uint256",
              "name": "_bidExchangeRate",
              "type": "uint256"
            },
            {
              "internalType": "uint256",
              "name": "_zwlEquivalent",
              "type": "uint256"
            },
            {
              "internalType": "uint256",
              "name": "_currentBalanceZWL",
              "type": "uint256"
            },
            {
              "internalType": "uint256",
              "name": "_currentNostroBalanceUSD",
              "type": "uint256"
            }
          ],
          "internalType": "struct FXAuctions.FXBidForm",
          "name": "_fixBiForm",
          "type": "tuple"
        }
      ],
      "name": "submitBid",
      "outputs": [],
      "stateMutability": "nonpayable",
      "type": "function"
    }
  ],
  "bytecode": "0x608060405260006006556000600755600060085560006009556000600a556000600b556000600c553480156200003457600080fd5b506040516200207b3803806200207b83398181016040528101906200005a919062000104565b83600e8190555082600f81905550816010819055508060118190555083601360003373ffffffffffffffffffffffffffffffffffffffff1673ffffffffffffffffffffffffffffffffffffffff168152602001908152602001600020819055505050505062000176565b600080fd5b6000819050919050565b620000de81620000c9565b8114620000ea57600080fd5b50565b600081519050620000fe81620000d3565b92915050565b60008060008060808587031215620001215762000120620000c4565b5b60006200013187828801620000ed565b94505060206200014487828801620000ed565b93505060406200015787828801620000ed565b92505060606200016a87828801620000ed565b91505092959194509250565b611ef580620001866000396000f3fe608060405234801561001057600080fd5b506004361061004c5760003560e01c80635973117f1461005157806393e30ee11461006f578063ac9480031461008b578063e94c05f5146100a9575b600080fd5b6100596100c7565b6040516100669190611317565b60405180910390f35b61008960048036038101906100849190611864565b6100cd565b005b61009361120a565b6040516100a09190611317565b60405180910390f35b6100b1611251565b6040516100be9190611317565b60405180910390f35b600c5481565b42600f5411156100dc57600080fd5b6011548161024001511015610126576040517f08c379a000000000000000000000000000000000000000000000000000000000815260040161011d9061190a565b60405180910390fd5b6010548161024001511115610170576040517f08c379a000000000000000000000000000000000000000000000000000000000815260040161016790611976565b60405180910390fd5b80610280015181610260015110156101bd576040517f08c379a00000000000000000000000000000000000000000000000000000000081526004016101b490611a08565b60405180910390fd5b806102a00151816102200151111561020a576040517f08c379a000000000000000000000000000000000000000000000000000000000815260040161020190611a9a565b60405180910390fd5b60405160200161021990611b11565b604051602081830303815290604052805190602001208160a001516040516020016102449190611b95565b6040516020818303038152906040528051906020012014156104b4576006548160000181815250508060006006600081548092919061028290611bdb565b919050558154811061029757610296611c24565b5b90600052602060002090601602016000820151816000015560208201518160010190805190602001906102cb92919061125b565b5060408201518160020190805190602001906102e892919061125b565b50606082015181600301908051906020019061030592919061125b565b50608082015181600401908051906020019061032292919061125b565b5060a082015181600501908051906020019061033f92919061125b565b5060c082015181600601908051906020019061035c92919061125b565b5060e082015181600701908051906020019061037992919061125b565b5061010082015181600801908051906020019061039792919061125b565b506101208201518160090190805190602001906103b592919061125b565b5061014082015181600a0190805190602001906103d392919061125b565b5061016082015181600b0190805190602001906103f192919061125b565b5061018082015181600c01556101a082015181600d01908051906020019061041a92919061125b565b506101c082015181600e01908051906020019061043892919061125b565b506101e082015181600f01908051906020019061045692919061125b565b5061020082015181601001908051906020019061047492919061125b565b5061022082015181601101556102408201518160120155610260820151816013015561028082015181601401556102a08201518160150155905050611207565b6040516020016104c390611cc5565b604051602081830303815290604052805190602001208160a001516040516020016104ee9190611b95565b60405160208183030381529060405280519060200120141561075e576007548160000181815250508060016007600081548092919061052c90611bdb565b919050558154811061054157610540611c24565b5b906000526020600020906016020160008201518160000155602082015181600101908051906020019061057592919061125b565b50604082015181600201908051906020019061059292919061125b565b5060608201518160030190805190602001906105af92919061125b565b5060808201518160040190805190602001906105cc92919061125b565b5060a08201518160050190805190602001906105e992919061125b565b5060c082015181600601908051906020019061060692919061125b565b5060e082015181600701908051906020019061062392919061125b565b5061010082015181600801908051906020019061064192919061125b565b5061012082015181600901908051906020019061065f92919061125b565b5061014082015181600a01908051906020019061067d92919061125b565b5061016082015181600b01908051906020019061069b92919061125b565b5061018082015181600c01556101a082015181600d0190805190602001906106c492919061125b565b506101c082015181600e0190805190602001906106e292919061125b565b506101e082015181600f01908051906020019061070092919061125b565b5061020082015181601001908051906020019061071e92919061125b565b5061022082015181601101556102408201518160120155610260820151816013015561028082015181601401556102a08201518160150155905050611206565b60405160200161076d90611d26565b604051602081830303815290604052805190602001208160a001516040516020016107989190611b95565b604051602081830303815290604052805190602001201415610a0857600854816000018181525050806002600860008154809291906107d690611bdb565b91905055815481106107eb576107ea611c24565b5b906000526020600020906016020160008201518160000155602082015181600101908051906020019061081f92919061125b565b50604082015181600201908051906020019061083c92919061125b565b50606082015181600301908051906020019061085992919061125b565b50608082015181600401908051906020019061087692919061125b565b5060a082015181600501908051906020019061089392919061125b565b5060c08201518160060190805190602001906108b092919061125b565b5060e08201518160070190805190602001906108cd92919061125b565b506101008201518160080190805190602001906108eb92919061125b565b5061012082015181600901908051906020019061090992919061125b565b5061014082015181600a01908051906020019061092792919061125b565b5061016082015181600b01908051906020019061094592919061125b565b5061018082015181600c01556101a082015181600d01908051906020019061096e92919061125b565b506101c082015181600e01908051906020019061098c92919061125b565b506101e082015181600f0190805190602001906109aa92919061125b565b506102008201518160100190805190602001906109c892919061125b565b5061022082015181601101556102408201518160120155610260820151816013015561028082015181601401556102a08201518160150155905050611205565b604051602001610a1790611d87565b604051602081830303815290604052805190602001208160a00151604051602001610a429190611b95565b604051602081830303815290604052805190602001201415610cb25760095481600001818152505080600360096000815480929190610a8090611bdb565b9190505581548110610a9557610a94611c24565b5b9060005260206000209060160201600082015181600001556020820151816001019080519060200190610ac992919061125b565b506040820151816002019080519060200190610ae692919061125b565b506060820151816003019080519060200190610b0392919061125b565b506080820151816004019080519060200190610b2092919061125b565b5060a0820151816005019080519060200190610b3d92919061125b565b5060c0820151816006019080519060200190610b5a92919061125b565b5060e0820151816007019080519060200190610b7792919061125b565b50610100820151816008019080519060200190610b9592919061125b565b50610120820151816009019080519060200190610bb392919061125b565b5061014082015181600a019080519060200190610bd192919061125b565b5061016082015181600b019080519060200190610bef92919061125b565b5061018082015181600c01556101a082015181600d019080519060200190610c1892919061125b565b506101c082015181600e019080519060200190610c3692919061125b565b506101e082015181600f019080519060200190610c5492919061125b565b50610200820151816010019080519060200190610c7292919061125b565b5061022082015181601101556102408201518160120155610260820151816013015561028082015181601401556102a08201518160150155905050611204565b604051602001610cc190611de8565b604051602081830303815290604052805190602001208160a00151604051602001610cec9190611b95565b604051602081830303815290604052805190602001201415610f5c57600a54816000018181525050806004600a6000815480929190610d2a90611bdb565b9190505581548110610d3f57610d3e611c24565b5b9060005260206000209060160201600082015181600001556020820151816001019080519060200190610d7392919061125b565b506040820151816002019080519060200190610d9092919061125b565b506060820151816003019080519060200190610dad92919061125b565b506080820151816004019080519060200190610dca92919061125b565b5060a0820151816005019080519060200190610de792919061125b565b5060c0820151816006019080519060200190610e0492919061125b565b5060e0820151816007019080519060200190610e2192919061125b565b50610100820151816008019080519060200190610e3f92919061125b565b50610120820151816009019080519060200190610e5d92919061125b565b5061014082015181600a019080519060200190610e7b92919061125b565b5061016082015181600b019080519060200190610e9992919061125b565b5061018082015181600c01556101a082015181600d019080519060200190610ec292919061125b565b506101c082015181600e019080519060200190610ee092919061125b565b506101e082015181600f019080519060200190610efe92919061125b565b50610200820151816010019080519060200190610f1c92919061125b565b5061022082015181601101556102408201518160120155610260820151816013015561028082015181601401556102a08201518160150155905050611203565b604051602001610f6b90611e49565b604051602081830303815290604052805190602001208160a00151604051602001610f969190611b95565b60405160208183030381529060405280519060200120141561120257600b54816000018181525050806005600b6000815480929190610fd490611bdb565b9190505581548110610fe957610fe8611c24565b5b906000526020600020906016020160008201518160000155602082015181600101908051906020019061101d92919061125b565b50604082015181600201908051906020019061103a92919061125b565b50606082015181600301908051906020019061105792919061125b565b50608082015181600401908051906020019061107492919061125b565b5060a082015181600501908051906020019061109192919061125b565b5060c08201518160060190805190602001906110ae92919061125b565b5060e08201518160070190805190602001906110cb92919061125b565b506101008201518160080190805190602001906110e992919061125b565b5061012082015181600901908051906020019061110792919061125b565b5061014082015181600a01908051906020019061112592919061125b565b5061016082015181600b01908051906020019061114392919061125b565b5061018082015181600c01556101a082015181600d01908051906020019061116c92919061125b565b506101c082015181600e01908051906020019061118a92919061125b565b506101e082015181600f0190805190602001906111a892919061125b565b506102008201518160100190805190602001906111c692919061125b565b5061022082015181601101556102408201518160120155610260820151816013015561028082015181601401556102a082015181601501559050505b5b5b5b5b5b50565b6000601360003373ffffffffffffffffffffffffffffffffffffffff1673ffffffffffffffffffffffffffffffffffffffff16815260200190815260200160002054905090565b6000600c54905090565b82805461126790611e8d565b90600052602060002090601f01602090048101928261128957600085556112d0565b82601f106112a257805160ff19168380011785556112d0565b828001600101855582156112d0579182015b828111156112cf5782518255916020019190600101906112b4565b5b5090506112dd91906112e1565b5090565b5b808211156112fa5760008160009055506001016112e2565b5090565b6000819050919050565b611311816112fe565b82525050565b600060208201905061132c6000830184611308565b92915050565b6000604051905090565b600080fd5b600080fd5b600080fd5b6000601f19601f8301169050919050565b7f4e487b7100000000000000000000000000000000000000000000000000000000600052604160045260246000fd5b6113948261134b565b810181811067ffffffffffffffff821117156113b3576113b261135c565b5b80604052505050565b60006113c6611332565b90506113d2828261138b565b919050565b600080fd5b6113e5816112fe565b81146113f057600080fd5b50565b600081359050611402816113dc565b92915050565b600080fd5b600080fd5b600067ffffffffffffffff82111561142d5761142c61135c565b5b6114368261134b565b9050602081019050919050565b82818337600083830152505050565b600061146561146084611412565b6113bc565b9050828152602081018484840111156114815761148061140d565b5b61148c848285611443565b509392505050565b600082601f8301126114a9576114a8611408565b5b81356114b9848260208601611452565b91505092915050565b60006102c082840312156114d9576114d8611346565b5b6114e46102c06113bc565b905060006114f4848285016113f3565b600083015250602082013567ffffffffffffffff811115611518576115176113d7565b5b61152484828501611494565b602083015250604082013567ffffffffffffffff811115611548576115476113d7565b5b61155484828501611494565b604083015250606082013567ffffffffffffffff811115611578576115776113d7565b5b61158484828501611494565b606083015250608082013567ffffffffffffffff8111156115a8576115a76113d7565b5b6115b484828501611494565b60808301525060a082013567ffffffffffffffff8111156115d8576115d76113d7565b5b6115e484828501611494565b60a08301525060c082013567ffffffffffffffff811115611608576116076113d7565b5b61161484828501611494565b60c08301525060e082013567ffffffffffffffff811115611638576116376113d7565b5b61164484828501611494565b60e08301525061010082013567ffffffffffffffff811115611669576116686113d7565b5b61167584828501611494565b6101008301525061012082013567ffffffffffffffff81111561169b5761169a6113d7565b5b6116a784828501611494565b6101208301525061014082013567ffffffffffffffff8111156116cd576116cc6113d7565b5b6116d984828501611494565b6101408301525061016082013567ffffffffffffffff8111156116ff576116fe6113d7565b5b61170b84828501611494565b61016083015250610180611721848285016113f3565b610180830152506101a082013567ffffffffffffffff811115611747576117466113d7565b5b61175384828501611494565b6101a0830152506101c082013567ffffffffffffffff811115611779576117786113d7565b5b61178584828501611494565b6101c0830152506101e082013567ffffffffffffffff8111156117ab576117aa6113d7565b5b6117b784828501611494565b6101e08301525061020082013567ffffffffffffffff8111156117dd576117dc6113d7565b5b6117e984828501611494565b610200830152506102206117ff848285016113f3565b61022083015250610240611815848285016113f3565b6102408301525061026061182b848285016113f3565b61026083015250610280611841848285016113f3565b610280830152506102a0611857848285016113f3565b6102a08301525092915050565b60006020828403121561187a5761187961133c565b5b600082013567ffffffffffffffff81111561189857611897611341565b5b6118a4848285016114c2565b91505092915050565b600082825260208201905092915050565b7f50726963652062656c6f77207374617274696e67207072696365000000000000600082015250565b60006118f4601a836118ad565b91506118ff826118be565b602082019050919050565b60006020820190508181036000830152611923816118e7565b9050919050565b7f50726963652061626f7665206869676865737420707269636500000000000000600082015250565b60006119606019836118ad565b915061196b8261192a565b602082019050919050565b6000602082019050818103600083015261198f81611953565b9050919050565b7f496e73756666696369656e742066756e647320696e2062616e6b206163636f7560008201527f6e74000000000000000000000000000000000000000000000000000000000000602082015250565b60006119f26022836118ad565b91506119fd82611996565b604082019050919050565b60006020820190508181036000830152611a21816119e5565b9050919050565b7f426964646572206861732073756666696369656e742055534420696e206e6f7360008201527f74726f206163636f756e74730000000000000000000000000000000000000000602082015250565b6000611a84602c836118ad565b9150611a8f82611a28565b604082019050919050565b60006020820190508181036000830152611ab381611a77565b9050919050565b600081905092915050565b7f5052494d41525900000000000000000000000000000000000000000000000000600082015250565b6000611afb600783611aba565b9150611b0682611ac5565b600782019050919050565b6000611b1c82611aee565b9150819050919050565b600081519050919050565b60005b83811015611b4f578082015181840152602081019050611b34565b83811115611b5e576000848401525b50505050565b6000611b6f82611b26565b611b798185611aba565b9350611b89818560208601611b31565b80840191505092915050565b6000611ba18284611b64565b915081905092915050565b7f4e487b7100000000000000000000000000000000000000000000000000000000600052601160045260246000fd5b6000611be6826112fe565b91507fffffffffffffffffffffffffffffffffffffffffffffffffffffffffffffffff821415611c1957611c18611bac565b5b600182019050919050565b7f4e487b7100000000000000000000000000000000000000000000000000000000600052603260045260246000fd5b7f5345434f4e44415259202d205452414445522f4147454e54532f434f4d4d4f4460008201527f4954592042524f4b455200000000000000000000000000000000000000000000602082015250565b6000611caf602a83611aba565b9150611cba82611c53565b602a82019050919050565b6000611cd082611ca2565b9150819050919050565b7f5345434f4e44415259202d205345525649434553000000000000000000000000600082015250565b6000611d10601483611aba565b9150611d1b82611cda565b601482019050919050565b6000611d3182611d03565b9150819050919050565b7f5345434f4e44415259202d2046494e495348454420474f4f4453000000000000600082015250565b6000611d71601a83611aba565b9150611d7c82611d3b565b601a82019050919050565b6000611d9282611d64565b9150819050919050565b7f5345434f4e44415259202d20434f4e53554d41424c4553000000000000000000600082015250565b6000611dd2601783611aba565b9150611ddd82611d9c565b601782019050919050565b6000611df382611dc5565b9150819050919050565b7f494e444956494455414c00000000000000000000000000000000000000000000600082015250565b6000611e33600a83611aba565b9150611e3e82611dfd565b600a82019050919050565b6000611e5482611e26565b9150819050919050565b7f4e487b7100000000000000000000000000000000000000000000000000000000600052602260045260246000fd5b60006002820490506001821680611ea557607f821691505b60208210811415611eb957611eb8611e5e565b5b5091905056fea26469706673582212203e81ed979a07458edbc24f13a640daed2fec0a47c49075d971f2aee399ddcf6464736f6c634300080c0033",
  "immutableReferences": {},
  "source": "// SPDX-License-Identifier: MIT\npragma solidity 0.8.12;\n\n// import \"./ERC20.sol\";\n\ncontract FXAuctions {\n\n\n\n  FXBidForm[] primaryBids;\n  FXBidForm[] secondaryTraders;\n  FXBidForm[] secondaryServices;\n  FXBidForm[] secondaryFinished;\n  FXBidForm[] secondaryConsumables;\n  FXBidForm[] individuals;\n  uint primaryCount = 0;\n  uint secondaryTradersCount = 0;\n  uint secondaryServicesCount = 0;\n  uint secondaryFinishedCount = 0;\n  uint secondaryConsumablesCount = 0;\n  uint individualsCount = 0;\n\n    struct FXBidForm {\n        uint _id;\n        string _applicantName;\n        string _dateOfIncorporation;\n        string _tradingCommencementDate;\n        string _identificationNumber;\n        string _categoryOfBidder;\n        string _physicalAddress;\n        string _emailAddress;\n        string _contactNumber;\n        string _applicantBank;\n        string _auctionRef;\n        string _priorExhangeControlNumber;\n        uint _date;\n\n\n        string _economicSector;\n        string _purposeOfFunds;\n        string _descriptionOfGoods;\n        string _ultimateBeneficiary;\n        uint _bidAmountUSD;\n        uint _bidExchangeRate;\n        uint _zwlEquivalent;\n        uint _currentBalanceZWL;\n        uint _currentNostroBalanceUSD;\n\n    }\n\n    uint public numberOfAuctioneers = 0;\n    mapping (uint => FXBidForm)  bids;\n    uint totalAuctionAmountUSD;\n    uint bidSubmitionCloseTime;\n    uint highestBidPrice;\n    uint lowestBidPrice;\n    address manager;\n\n    mapping(address=>uint) bidBalance;\n    mapping(address=>FXBidForm) bidInfor;\n\n    modifier onlyWhileOpen(){\n        require(bidSubmitionCloseTime <= block.timestamp);\n        _;\n    } \n\n    constructor (uint _totalAuctionAmountUSD, uint _bidSubmitionCloseTime, uint _highestBidPrice, uint _lowestBidPrice) {\n        totalAuctionAmountUSD = _totalAuctionAmountUSD;\n        bidSubmitionCloseTime = _bidSubmitionCloseTime;\n        highestBidPrice = _highestBidPrice;\n        lowestBidPrice = _lowestBidPrice;\n        bidBalance[msg.sender] = _totalAuctionAmountUSD;\n\n    }\n\n    function getAvailableBidBalance() public view  returns (uint) {\n      return bidBalance[msg.sender];\n    }\n\n    function getNumberOfBidders() public view returns (uint){\n      return numberOfAuctioneers;\n    }\n\n    function submitBid(FXBidForm memory _fixBiForm) public onlyWhileOpen {\n            require(_fixBiForm._bidExchangeRate >= lowestBidPrice, \"Price below starting price\");    \n            require(_fixBiForm._bidExchangeRate <= highestBidPrice, \"Price above highest price\");\n            require(_fixBiForm._zwlEquivalent >= _fixBiForm._currentBalanceZWL, \"Insufficient funds in bank account\");     \n            require(_fixBiForm._bidAmountUSD <= _fixBiForm._currentNostroBalanceUSD, \"Bidder has sufficient USD in nostro accounts\");  \n\n \n            if(keccak256(abi.encodePacked((_fixBiForm._categoryOfBidder))) == keccak256(abi.encodePacked((\"PRIMARY\")))){\n              _fixBiForm._id = primaryCount;\n              primaryBids[primaryCount++] = _fixBiForm;\n            }\n            else if (keccak256(abi.encodePacked((_fixBiForm._categoryOfBidder))) == keccak256(abi.encodePacked((\"SECONDARY - TRADER/AGENTS/COMMODITY BROKER\")))){\n              _fixBiForm._id = secondaryTradersCount;\n              secondaryTraders[secondaryTradersCount++] = _fixBiForm;\n            }\n            else if (keccak256(abi.encodePacked((_fixBiForm._categoryOfBidder))) == keccak256(abi.encodePacked((\"SECONDARY - SERVICES\")))){\n              _fixBiForm._id = secondaryServicesCount;\n              secondaryServices[secondaryServicesCount++] = _fixBiForm;\n            }\n            else if (keccak256(abi.encodePacked((_fixBiForm._categoryOfBidder))) == keccak256(abi.encodePacked((\"SECONDARY - FINISHED GOODS\")))){\n              _fixBiForm._id = secondaryFinishedCount;\n              secondaryFinished[secondaryFinishedCount++] = _fixBiForm;\n            }\n            else if (keccak256(abi.encodePacked((_fixBiForm._categoryOfBidder))) == keccak256(abi.encodePacked((\"SECONDARY - CONSUMABLES\")))){\n              _fixBiForm._id = secondaryConsumablesCount;\n              secondaryConsumables[secondaryConsumablesCount++] = _fixBiForm;\n            }\n            else if (keccak256(abi.encodePacked((_fixBiForm._categoryOfBidder))) == keccak256(abi.encodePacked((\"INDIVIDUAL\")))){\n              _fixBiForm._id = individualsCount;\n              individuals[individualsCount++] = _fixBiForm;\n            }\n\n      }\n\n\n    function incrementCount() internal{\n        numberOfAuctioneers++;\n   }\n\n   function selectWinningBid() internal view {\n        \n    \n   }\n\n\n\n\n}",
  "sourcePath": "/Users/tafarambano/Desktop/test-truffle/contracts/FXAuctions.sol",
  "compiler": {
    "name": "solc",
    "version": "0.8.12+commit.f00d7308.Emscripten.clang"
  },
  "schemaVersion": "3.4.5",
  "updatedAt": "2022-03-06T10:12:18.268Z",
  "devdoc": {
    "kind": "dev",
    "methods": {},
    "version": 1
  },
  "userdoc": {
    "kind": "user",
    "methods": {},
    "version": 1
  }
}